{
	"data": {
		"bytecode": {
			"linkReferences": {},
			"object": "6080604052348015600e575f80fd5b5061254c8061001c5f395ff3fe608060405234801561000f575f80fd5b506004361061009c575f3560e01c80636c6c32d0116100645780636c6c32d014610176578063b382134e14610194578063c62156f2146101c6578063cd744e50146101e6578063cf95a070146102025761009c565b80633477ee2e146100a057806339bfeae3146100d05780634717f97c146101005780634b1d3ede146101205780635df8133014610142575b5f80fd5b6100ba60048036038101906100b591906112cb565b610232565b6040516100c79190611366565b60405180910390f35b6100ea60048036038101906100e591906114b2565b6102d8565b6040516100f79190611513565b60405180910390f35b61010861030d565b604051610117939291906116f5565b60405180910390f35b610128610540565b604051610139959493929190611738565b60405180910390f35b61015c600480360381019061015791906112cb565b61067a565b60405161016d959493929190611797565b60405180910390f35b61017e61084d565b60405161018b9190611513565b60405180910390f35b6101ae60048036038101906101a991906117fd565b61090b565b6040516101bd93929190611977565b60405180910390f35b6101ce610c77565b6040516101dd939291906119b3565b60405180910390f35b61020060048036038101906101fb9190611aca565b610c9d565b005b61021c60048036038101906102179190611b95565b610dd3565b6040516102299190611513565b60405180910390f35b60058181548110610241575f80fd5b905f5260205f20015f91509050805461025990611c66565b80601f016020809104026020016040519081016040528092919081815260200182805461028590611c66565b80156102d05780601f106102a7576101008083540402835291602001916102d0565b820191905f5260205f20905b8154815290600101906020018083116102b357829003601f168201915b505050505081565b6007818051602081018201805184825260208301602085012081835280955050505050505f915054906101000a900460ff1681565b6060805f8060058054905067ffffffffffffffff8111156103315761033061138e565b5b60405190808252806020026020018201604052801561035f5781602001602082028036833780820191505090505b5090505f5b60068054905081101561045c575f5b60058054905081101561044e576005818154811061039457610393611c96565b5b905f5260205f20016040516020016103ac9190611d5f565b60405160208183030381529060405280519060200120600683815481106103d6576103d5611c96565b5b905f5260205f2090600502016001016040516020016103f59190611d5f565b60405160208183030381529060405280519060200120036104415782818151811061042357610422611c96565b5b60200260200101805180919061043890611da2565b8152505061044e565b8080600101915050610373565b508080600101915050610364565b5060058160068054905082805480602002602001604051908101604052809291908181526020015f905b8282101561052e578382905f5260205f200180546104a390611c66565b80601f01602080910402602001604051908101604052809291908181526020018280546104cf90611c66565b801561051a5780601f106104f15761010080835404028352916020019161051a565b820191905f5260205f20905b8154815290600101906020018083116104fd57829003601f168201915b505050505081526020019060010190610486565b50505050925093509350935050909192565b5f805f01805461054f90611c66565b80601f016020809104026020016040519081016040528092919081815260200182805461057b90611c66565b80156105c65780601f1061059d576101008083540402835291602001916105c6565b820191905f5260205f20905b8154815290600101906020018083116105a957829003601f168201915b5050505050908060010180546105db90611c66565b80601f016020809104026020016040519081016040528092919081815260200182805461060790611c66565b80156106525780601f1061062957610100808354040283529160200191610652565b820191905f5260205f20905b81548152906001019060200180831161063557829003601f168201915b505050505090806002015490806003015490806004015f9054906101000a900460ff16905085565b60068181548110610689575f80fd5b905f5260205f2090600502015f91509050805f0180546106a890611c66565b80601f01602080910402602001604051908101604052809291908181526020018280546106d490611c66565b801561071f5780601f106106f65761010080835404028352916020019161071f565b820191905f5260205f20905b81548152906001019060200180831161070257829003601f168201915b50505050509080600101805461073490611c66565b80601f016020809104026020016040519081016040528092919081815260200182805461076090611c66565b80156107ab5780601f10610782576101008083540402835291602001916107ab565b820191905f5260205f20905b81548152906001019060200180831161078e57829003601f168201915b5050505050908060020180546107c090611c66565b80601f01602080910402602001604051908101604052809291908181526020018280546107ec90611c66565b80156108375780601f1061080e57610100808354040283529160200191610837565b820191905f5260205f20905b81548152906001019060200180831161081a57829003601f168201915b5050505050908060030154908060040154905085565b5f806004015f9054906101000a900460ff1661089e576040517f08c379a000000000000000000000000000000000000000000000000000000000815260040161089590611e33565b60405180910390fd5b5f806004015f6101000a81548160ff021916908315150217905550425f600301819055507f18c0c2fb1301eb540eaf37af6d3c8f206262f58d7832e9211556dd0be61521835f8001426006805490506040516108fc93929190611ed2565b60405180910390a16001905090565b60605f805f858561091c9190611f0e565b90505f868261092b9190611f4f565b90506006805490508111156109435760068054905090505b60068054905082106109bc575f8067ffffffffffffffff81111561096a5761096961138e565b5b6040519080825280602002602001820160405280156109a357816020015b61099061114f565b8152602001906001900390816109885790505b509050806006805490505f955095509550505050610c70565b5f82826109c99190611f82565b90505f8167ffffffffffffffff8111156109e6576109e561138e565b5b604051908082528060200260200182016040528015610a1f57816020015b610a0c61114f565b815260200190600190039081610a045790505b5090505f5b82811015610c505760068186610a3a9190611f4f565b81548110610a4b57610a4a611c96565b5b905f5260205f2090600502016040518060a00160405290815f82018054610a7190611c66565b80601f0160208091040260200160405190810160405280929190818152602001828054610a9d90611c66565b8015610ae85780601f10610abf57610100808354040283529160200191610ae8565b820191905f5260205f20905b815481529060010190602001808311610acb57829003601f168201915b50505050508152602001600182018054610b0190611c66565b80601f0160208091040260200160405190810160405280929190818152602001828054610b2d90611c66565b8015610b785780601f10610b4f57610100808354040283529160200191610b78565b820191905f5260205f20905b815481529060010190602001808311610b5b57829003601f168201915b50505050508152602001600282018054610b9190611c66565b80601f0160208091040260200160405190810160405280929190818152602001828054610bbd90611c66565b8015610c085780601f10610bdf57610100808354040283529160200191610c08565b820191905f5260205f20905b815481529060010190602001808311610beb57829003601f168201915b5050505050815260200160038201548152602001600482015481525050828281518110610c3857610c37611c96565b5b60200260200101819052508080600101915050610a24565b505f60068054905084109050816006805490508297509750975050505050505b9250925092565b5f805f806004015f9054906101000a900460ff1643600680549050925092509250909192565b5f6004015f9054906101000a900460ff1615610cee576040517f08c379a0000000000000000000000000000000000000000000000000000000008152600401610ce590611fff565b60405180910390fd5b835f80019081610cfe91906121a8565b50845f6001019081610d1091906121a8565b505f8211610d1e5742610d20565b815b5f60020181905550805f6003018190555060015f6004015f6101000a81548160ff02191690831515021790555060055f610d5a919061117c565b60065f610d67919061119a565b5f5b8351811015610dcb576005848281518110610d8757610d86611c96565b5b6020026020010151908060018154018082558091505060019003905f5260205f20015f909190919091509081610dbd91906121a8565b508080600101915050610d69565b505050505050565b5f806004015f9054906101000a900460ff16610e24576040517f08c379a0000000000000000000000000000000000000000000000000000000008152600401610e1b906122c1565b60405180910390fd5b5f60020154421015610e6b576040517f08c379a0000000000000000000000000000000000000000000000000000000008152600401610e6290612329565b60405180910390fd5b5f80600301541480610e8157505f600301544211155b610ec0576040517f08c379a0000000000000000000000000000000000000000000000000000000008152600401610eb790612391565b60405180910390fd5b5f84604051602001610ed291906123df565b604051602081830303815290604052805190602001209050600785604051610efa91906123df565b90815260200160405180910390205f9054906101000a900460ff1615610f55576040517f08c379a0000000000000000000000000000000000000000000000000000000008152600401610f4c9061243f565b60405180910390fd5b5f805b600580549050811015610fe95785604051602001610f7691906123df565b6040516020818303038152906040528051906020012060058281548110610fa057610f9f611c96565b5b905f5260205f2001604051602001610fb89190611d5f565b6040516020818303038152906040528051906020012003610fdc5760019150610fe9565b8080600101915050610f58565b508061102a576040517f08c379a0000000000000000000000000000000000000000000000000000000008152600401611021906124a7565b60405180910390fd5b60066040518060a0016040528088815260200187815260200186815260200142815260200143815250908060018154018082558091505060019003905f5260205f2090600502015f909190919091505f820151815f01908161108c91906121a8565b5060208201518160010190816110a291906121a8565b5060408201518160020190816110b891906121a8565b506060820151816003015560808201518160040155505060016007876040516110e191906123df565b90815260200160405180910390205f6101000a81548160ff0219169083151502179055507fe887a24a748917ed4a479dd7fc032ff816b08be2efa7c2656bd9363aee2845818686424360405161113a94939291906124c5565b60405180910390a16001925050509392505050565b6040518060a001604052806060815260200160608152602001606081526020015f81526020015f81525090565b5080545f8255905f5260205f209081019061119791906111bb565b50565b5080545f8255600502905f5260205f20908101906111b891906111de565b50565b5b808211156111da575f81816111d1919061122f565b506001016111bc565b5090565b5b8082111561122b575f8082015f6111f6919061122f565b600182015f611205919061122f565b600282015f611214919061122f565b600382015f9055600482015f9055506005016111df565b5090565b50805461123b90611c66565b5f825580601f1061124c5750611269565b601f0160209004905f5260205f2090810190611268919061126c565b5b50565b5b80821115611283575f815f90555060010161126d565b5090565b5f604051905090565b5f80fd5b5f80fd5b5f819050919050565b6112aa81611298565b81146112b4575f80fd5b50565b5f813590506112c5816112a1565b92915050565b5f602082840312156112e0576112df611290565b5b5f6112ed848285016112b7565b91505092915050565b5f81519050919050565b5f82825260208201905092915050565b8281835e5f83830152505050565b5f601f19601f8301169050919050565b5f611338826112f6565b6113428185611300565b9350611352818560208601611310565b61135b8161131e565b840191505092915050565b5f6020820190508181035f83015261137e818461132e565b905092915050565b5f80fd5b5f80fd5b7f4e487b71000000000000000000000000000000000000000000000000000000005f52604160045260245ffd5b6113c48261131e565b810181811067ffffffffffffffff821117156113e3576113e261138e565b5b80604052505050565b5f6113f5611287565b905061140182826113bb565b919050565b5f67ffffffffffffffff8211156114205761141f61138e565b5b6114298261131e565b9050602081019050919050565b828183375f83830152505050565b5f61145661145184611406565b6113ec565b9050828152602081018484840111156114725761147161138a565b5b61147d848285611436565b509392505050565b5f82601f83011261149957611498611386565b5b81356114a9848260208601611444565b91505092915050565b5f602082840312156114c7576114c6611290565b5b5f82013567ffffffffffffffff8111156114e4576114e3611294565b5b6114f084828501611485565b91505092915050565b5f8115159050919050565b61150d816114f9565b82525050565b5f6020820190506115265f830184611504565b92915050565b5f81519050919050565b5f82825260208201905092915050565b5f819050602082019050919050565b5f82825260208201905092915050565b5f61156f826112f6565b6115798185611555565b9350611589818560208601611310565b6115928161131e565b840191505092915050565b5f6115a88383611565565b905092915050565b5f602082019050919050565b5f6115c68261152c565b6115d08185611536565b9350836020820285016115e285611546565b805f5b8581101561161d57848403895281516115fe858261159d565b9450611609836115b0565b925060208a019950506001810190506115e5565b50829750879550505050505092915050565b5f81519050919050565b5f82825260208201905092915050565b5f819050602082019050919050565b61166181611298565b82525050565b5f6116728383611658565b60208301905092915050565b5f602082019050919050565b5f6116948261162f565b61169e8185611639565b93506116a983611649565b805f5b838110156116d95781516116c08882611667565b97506116cb8361167e565b9250506001810190506116ac565b5085935050505092915050565b6116ef81611298565b82525050565b5f6060820190508181035f83015261170d81866115bc565b90508181036020830152611721818561168a565b905061173060408301846116e6565b949350505050565b5f60a0820190508181035f830152611750818861132e565b90508181036020830152611764818761132e565b905061177360408301866116e6565b61178060608301856116e6565b61178d6080830184611504565b9695505050505050565b5f60a0820190508181035f8301526117af818861132e565b905081810360208301526117c3818761132e565b905081810360408301526117d7818661132e565b90506117e660608301856116e6565b6117f360808301846116e6565b9695505050505050565b5f806040838503121561181357611812611290565b5b5f611820858286016112b7565b9250506020611831858286016112b7565b9150509250929050565b5f81519050919050565b5f82825260208201905092915050565b5f819050602082019050919050565b5f60a083015f8301518482035f86015261187e8282611565565b915050602083015184820360208601526118988282611565565b915050604083015184820360408601526118b28282611565565b91505060608301516118c76060860182611658565b5060808301516118da6080860182611658565b508091505092915050565b5f6118f08383611864565b905092915050565b5f602082019050919050565b5f61190e8261183b565b6119188185611845565b93508360208202850161192a85611855565b805f5b85811015611965578484038952815161194685826118e5565b9450611951836118f8565b925060208a0199505060018101905061192d565b50829750879550505050505092915050565b5f6060820190508181035f83015261198f8186611904565b905061199e60208301856116e6565b6119ab6040830184611504565b949350505050565b5f6060820190506119c65f830186611504565b6119d360208301856116e6565b6119e060408301846116e6565b949350505050565b5f67ffffffffffffffff821115611a0257611a0161138e565b5b602082029050602081019050919050565b5f80fd5b5f611a29611a24846119e8565b6113ec565b90508083825260208201905060208402830185811115611a4c57611a4b611a13565b5b835b81811015611a9357803567ffffffffffffffff811115611a7157611a70611386565b5b808601611a7e8982611485565b85526020850194505050602081019050611a4e565b5050509392505050565b5f82601f830112611ab157611ab0611386565b5b8135611ac1848260208601611a17565b91505092915050565b5f805f805f60a08688031215611ae357611ae2611290565b5b5f86013567ffffffffffffffff811115611b0057611aff611294565b5b611b0c88828901611485565b955050602086013567ffffffffffffffff811115611b2d57611b2c611294565b5b611b3988828901611485565b945050604086013567ffffffffffffffff811115611b5a57611b59611294565b5b611b6688828901611a9d565b9350506060611b77888289016112b7565b9250506080611b88888289016112b7565b9150509295509295909350565b5f805f60608486031215611bac57611bab611290565b5b5f84013567ffffffffffffffff811115611bc957611bc8611294565b5b611bd586828701611485565b935050602084013567ffffffffffffffff811115611bf657611bf5611294565b5b611c0286828701611485565b925050604084013567ffffffffffffffff811115611c2357611c22611294565b5b611c2f86828701611485565b9150509250925092565b7f4e487b71000000000000000000000000000000000000000000000000000000005f52602260045260245ffd5b5f6002820490506001821680611c7d57607f821691505b602082108103611c9057611c8f611c39565b5b50919050565b7f4e487b71000000000000000000000000000000000000000000000000000000005f52603260045260245ffd5b5f81905092915050565b5f819050815f5260205f209050919050565b5f8154611ceb81611c66565b611cf58186611cc3565b9450600182165f8114611d0f5760018114611d2457611d56565b60ff1983168652811515820286019350611d56565b611d2d85611ccd565b5f5b83811015611d4e57815481890152600182019150602081019050611d2f565b838801955050505b50505092915050565b5f611d6a8284611cdf565b915081905092915050565b7f4e487b71000000000000000000000000000000000000000000000000000000005f52601160045260245ffd5b5f611dac82611298565b91507fffffffffffffffffffffffffffffffffffffffffffffffffffffffffffffffff8203611dde57611ddd611d75565b5b600182019050919050565b7f456c656374696f6e20697320616c726561647920636c6f7365640000000000005f82015250565b5f611e1d601a83611300565b9150611e2882611de9565b602082019050919050565b5f6020820190508181035f830152611e4a81611e11565b9050919050565b5f8154611e5d81611c66565b611e678186611300565b9450600182165f8114611e815760018114611e9757611ec9565b60ff198316865281151560200286019350611ec9565b611ea085611ccd565b5f5b83811015611ec157815481890152600182019150602081019050611ea2565b808801955050505b50505092915050565b5f6060820190508181035f830152611eea8186611e51565b9050611ef960208301856116e6565b611f0660408301846116e6565b949350505050565b5f611f1882611298565b9150611f2383611298565b9250828202611f3181611298565b91508282048414831517611f4857611f47611d75565b5b5092915050565b5f611f5982611298565b9150611f6483611298565b9250828201905080821115611f7c57611f7b611d75565b5b92915050565b5f611f8c82611298565b9150611f9783611298565b9250828203905081811115611faf57611fae611d75565b5b92915050565b7f456c656374696f6e20616c726561647920696e697469616c697a6564000000005f82015250565b5f611fe9601c83611300565b9150611ff482611fb5565b602082019050919050565b5f6020820190508181035f83015261201681611fdd565b9050919050565b5f6020601f8301049050919050565b5f82821b905092915050565b5f600883026120677fffffffffffffffffffffffffffffffffffffffffffffffffffffffffffffffff8261202c565b612071868361202c565b95508019841693508086168417925050509392505050565b5f819050919050565b5f6120ac6120a76120a284611298565b612089565b611298565b9050919050565b5f819050919050565b6120c583612092565b6120d96120d1826120b3565b848454612038565b825550505050565b5f90565b6120ed6120e1565b6120f88184846120bc565b505050565b5b8181101561211b576121105f826120e5565b6001810190506120fe565b5050565b601f8211156121605761213181611ccd565b61213a8461201d565b81016020851015612149578190505b61215d6121558561201d565b8301826120fd565b50505b505050565b5f82821c905092915050565b5f6121805f1984600802612165565b1980831691505092915050565b5f6121988383612171565b9150826002028217905092915050565b6121b1826112f6565b67ffffffffffffffff8111156121ca576121c961138e565b5b6121d48254611c66565b6121df82828561211f565b5f60209050601f831160018114612210575f84156121fe578287015190505b612208858261218d565b86555061226f565b601f19841661221e86611ccd565b5f5b8281101561224557848901518255600182019150602085019450602081019050612220565b86831015612262578489015161225e601f891682612171565b8355505b6001600288020188555050505b505050505050565b7f456c656374696f6e206973206e6f7420616374697665000000000000000000005f82015250565b5f6122ab601683611300565b91506122b682612277565b602082019050919050565b5f6020820190508181035f8301526122d88161229f565b9050919050565b7f456c656374696f6e20686173206e6f74207374617274656420796574000000005f82015250565b5f612313601c83611300565b915061231e826122df565b602082019050919050565b5f6020820190508181035f83015261234081612307565b9050919050565b7f456c656374696f6e2068617320656e64656400000000000000000000000000005f82015250565b5f61237b601283611300565b915061238682612347565b602082019050919050565b5f6020820190508181035f8301526123a88161236f565b9050919050565b5f6123b9826112f6565b6123c38185611cc3565b93506123d3818560208601611310565b80840191505092915050565b5f6123ea82846123af565b915081905092915050565b7f566f7465722068617320616c72656164792063617374206120766f74650000005f82015250565b5f612429601d83611300565b9150612434826123f5565b602082019050919050565b5f6020820190508181035f8301526124568161241d565b9050919050565b7f496e76616c69642063616e6469646174650000000000000000000000000000005f82015250565b5f612491601183611300565b915061249c8261245d565b602082019050919050565b5f6020820190508181035f8301526124be81612485565b9050919050565b5f6080820190508181035f8301526124dd818761132e565b905081810360208301526124f1818661132e565b905061250060408301856116e6565b61250d60608301846116e6565b9594505050505056fea26469706673582212205e495399294876abbaef3622630edf9924eb8c6272c9d2e0939289d17144c6e264736f6c634300081a0033",
			"opcodes": "PUSH1 0x80 PUSH1 0x40 MSTORE CALLVALUE DUP1 ISZERO PUSH1 0xE JUMPI PUSH0 DUP1 REVERT JUMPDEST POP PUSH2 0x254C DUP1 PUSH2 0x1C PUSH0 CODECOPY PUSH0 RETURN INVALID PUSH1 0x80 PUSH1 0x40 MSTORE CALLVALUE DUP1 ISZERO PUSH2 0xF JUMPI PUSH0 DUP1 REVERT JUMPDEST POP PUSH1 0x4 CALLDATASIZE LT PUSH2 0x9C JUMPI PUSH0 CALLDATALOAD PUSH1 0xE0 SHR DUP1 PUSH4 0x6C6C32D0 GT PUSH2 0x64 JUMPI DUP1 PUSH4 0x6C6C32D0 EQ PUSH2 0x176 JUMPI DUP1 PUSH4 0xB382134E EQ PUSH2 0x194 JUMPI DUP1 PUSH4 0xC62156F2 EQ PUSH2 0x1C6 JUMPI DUP1 PUSH4 0xCD744E50 EQ PUSH2 0x1E6 JUMPI DUP1 PUSH4 0xCF95A070 EQ PUSH2 0x202 JUMPI PUSH2 0x9C JUMP JUMPDEST DUP1 PUSH4 0x3477EE2E EQ PUSH2 0xA0 JUMPI DUP1 PUSH4 0x39BFEAE3 EQ PUSH2 0xD0 JUMPI DUP1 PUSH4 0x4717F97C EQ PUSH2 0x100 JUMPI DUP1 PUSH4 0x4B1D3EDE EQ PUSH2 0x120 JUMPI DUP1 PUSH4 0x5DF81330 EQ PUSH2 0x142 JUMPI JUMPDEST PUSH0 DUP1 REVERT JUMPDEST PUSH2 0xBA PUSH1 0x4 DUP1 CALLDATASIZE SUB DUP2 ADD SWAP1 PUSH2 0xB5 SWAP2 SWAP1 PUSH2 0x12CB JUMP JUMPDEST PUSH2 0x232 JUMP JUMPDEST PUSH1 0x40 MLOAD PUSH2 0xC7 SWAP2 SWAP1 PUSH2 0x1366 JUMP JUMPDEST PUSH1 0x40 MLOAD DUP1 SWAP2 SUB SWAP1 RETURN JUMPDEST PUSH2 0xEA PUSH1 0x4 DUP1 CALLDATASIZE SUB DUP2 ADD SWAP1 PUSH2 0xE5 SWAP2 SWAP1 PUSH2 0x14B2 JUMP JUMPDEST PUSH2 0x2D8 JUMP JUMPDEST PUSH1 0x40 MLOAD PUSH2 0xF7 SWAP2 SWAP1 PUSH2 0x1513 JUMP JUMPDEST PUSH1 0x40 MLOAD DUP1 SWAP2 SUB SWAP1 RETURN JUMPDEST PUSH2 0x108 PUSH2 0x30D JUMP JUMPDEST PUSH1 0x40 MLOAD PUSH2 0x117 SWAP4 SWAP3 SWAP2 SWAP1 PUSH2 0x16F5 JUMP JUMPDEST PUSH1 0x40 MLOAD DUP1 SWAP2 SUB SWAP1 RETURN JUMPDEST PUSH2 0x128 PUSH2 0x540 JUMP JUMPDEST PUSH1 0x40 MLOAD PUSH2 0x139 SWAP6 SWAP5 SWAP4 SWAP3 SWAP2 SWAP1 PUSH2 0x1738 JUMP JUMPDEST PUSH1 0x40 MLOAD DUP1 SWAP2 SUB SWAP1 RETURN JUMPDEST PUSH2 0x15C PUSH1 0x4 DUP1 CALLDATASIZE SUB DUP2 ADD SWAP1 PUSH2 0x157 SWAP2 SWAP1 PUSH2 0x12CB JUMP JUMPDEST PUSH2 0x67A JUMP JUMPDEST PUSH1 0x40 MLOAD PUSH2 0x16D SWAP6 SWAP5 SWAP4 SWAP3 SWAP2 SWAP1 PUSH2 0x1797 JUMP JUMPDEST PUSH1 0x40 MLOAD DUP1 SWAP2 SUB SWAP1 RETURN JUMPDEST PUSH2 0x17E PUSH2 0x84D JUMP JUMPDEST PUSH1 0x40 MLOAD PUSH2 0x18B SWAP2 SWAP1 PUSH2 0x1513 JUMP JUMPDEST PUSH1 0x40 MLOAD DUP1 SWAP2 SUB SWAP1 RETURN JUMPDEST PUSH2 0x1AE PUSH1 0x4 DUP1 CALLDATASIZE SUB DUP2 ADD SWAP1 PUSH2 0x1A9 SWAP2 SWAP1 PUSH2 0x17FD JUMP JUMPDEST PUSH2 0x90B JUMP JUMPDEST PUSH1 0x40 MLOAD PUSH2 0x1BD SWAP4 SWAP3 SWAP2 SWAP1 PUSH2 0x1977 JUMP JUMPDEST PUSH1 0x40 MLOAD DUP1 SWAP2 SUB SWAP1 RETURN JUMPDEST PUSH2 0x1CE PUSH2 0xC77 JUMP JUMPDEST PUSH1 0x40 MLOAD PUSH2 0x1DD SWAP4 SWAP3 SWAP2 SWAP1 PUSH2 0x19B3 JUMP JUMPDEST PUSH1 0x40 MLOAD DUP1 SWAP2 SUB SWAP1 RETURN JUMPDEST PUSH2 0x200 PUSH1 0x4 DUP1 CALLDATASIZE SUB DUP2 ADD SWAP1 PUSH2 0x1FB SWAP2 SWAP1 PUSH2 0x1ACA JUMP JUMPDEST PUSH2 0xC9D JUMP JUMPDEST STOP JUMPDEST PUSH2 0x21C PUSH1 0x4 DUP1 CALLDATASIZE SUB DUP2 ADD SWAP1 PUSH2 0x217 SWAP2 SWAP1 PUSH2 0x1B95 JUMP JUMPDEST PUSH2 0xDD3 JUMP JUMPDEST PUSH1 0x40 MLOAD PUSH2 0x229 SWAP2 SWAP1 PUSH2 0x1513 JUMP JUMPDEST PUSH1 0x40 MLOAD DUP1 SWAP2 SUB SWAP1 RETURN JUMPDEST PUSH1 0x5 DUP2 DUP2 SLOAD DUP2 LT PUSH2 0x241 JUMPI PUSH0 DUP1 REVERT JUMPDEST SWAP1 PUSH0 MSTORE PUSH1 0x20 PUSH0 KECCAK256 ADD PUSH0 SWAP2 POP SWAP1 POP DUP1 SLOAD PUSH2 0x259 SWAP1 PUSH2 0x1C66 JUMP JUMPDEST DUP1 PUSH1 0x1F ADD PUSH1 0x20 DUP1 SWAP2 DIV MUL PUSH1 0x20 ADD PUSH1 0x40 MLOAD SWAP1 DUP2 ADD PUSH1 0x40 MSTORE DUP1 SWAP3 SWAP2 SWAP1 DUP2 DUP2 MSTORE PUSH1 0x20 ADD DUP3 DUP1 SLOAD PUSH2 0x285 SWAP1 PUSH2 0x1C66 JUMP JUMPDEST DUP1 ISZERO PUSH2 0x2D0 JUMPI DUP1 PUSH1 0x1F LT PUSH2 0x2A7 JUMPI PUSH2 0x100 DUP1 DUP4 SLOAD DIV MUL DUP4 MSTORE SWAP2 PUSH1 0x20 ADD SWAP2 PUSH2 0x2D0 JUMP JUMPDEST DUP3 ADD SWAP2 SWAP1 PUSH0 MSTORE PUSH1 0x20 PUSH0 KECCAK256 SWAP1 JUMPDEST DUP2 SLOAD DUP2 MSTORE SWAP1 PUSH1 0x1 ADD SWAP1 PUSH1 0x20 ADD DUP1 DUP4 GT PUSH2 0x2B3 JUMPI DUP3 SWAP1 SUB PUSH1 0x1F AND DUP3 ADD SWAP2 JUMPDEST POP POP POP POP POP DUP2 JUMP JUMPDEST PUSH1 0x7 DUP2 DUP1 MLOAD PUSH1 0x20 DUP2 ADD DUP3 ADD DUP1 MLOAD DUP5 DUP3 MSTORE PUSH1 0x20 DUP4 ADD PUSH1 0x20 DUP6 ADD KECCAK256 DUP2 DUP4 MSTORE DUP1 SWAP6 POP POP POP POP POP POP PUSH0 SWAP2 POP SLOAD SWAP1 PUSH2 0x100 EXP SWAP1 DIV PUSH1 0xFF AND DUP2 JUMP JUMPDEST PUSH1 0x60 DUP1 PUSH0 DUP1 PUSH1 0x5 DUP1 SLOAD SWAP1 POP PUSH8 0xFFFFFFFFFFFFFFFF DUP2 GT ISZERO PUSH2 0x331 JUMPI PUSH2 0x330 PUSH2 0x138E JUMP JUMPDEST JUMPDEST PUSH1 0x40 MLOAD SWAP1 DUP1 DUP3 MSTORE DUP1 PUSH1 0x20 MUL PUSH1 0x20 ADD DUP3 ADD PUSH1 0x40 MSTORE DUP1 ISZERO PUSH2 0x35F JUMPI DUP2 PUSH1 0x20 ADD PUSH1 0x20 DUP3 MUL DUP1 CALLDATASIZE DUP4 CALLDATACOPY DUP1 DUP3 ADD SWAP2 POP POP SWAP1 POP JUMPDEST POP SWAP1 POP PUSH0 JUMPDEST PUSH1 0x6 DUP1 SLOAD SWAP1 POP DUP2 LT ISZERO PUSH2 0x45C JUMPI PUSH0 JUMPDEST PUSH1 0x5 DUP1 SLOAD SWAP1 POP DUP2 LT ISZERO PUSH2 0x44E JUMPI PUSH1 0x5 DUP2 DUP2 SLOAD DUP2 LT PUSH2 0x394 JUMPI PUSH2 0x393 PUSH2 0x1C96 JUMP JUMPDEST JUMPDEST SWAP1 PUSH0 MSTORE PUSH1 0x20 PUSH0 KECCAK256 ADD PUSH1 0x40 MLOAD PUSH1 0x20 ADD PUSH2 0x3AC SWAP2 SWAP1 PUSH2 0x1D5F JUMP JUMPDEST PUSH1 0x40 MLOAD PUSH1 0x20 DUP2 DUP4 SUB SUB DUP2 MSTORE SWAP1 PUSH1 0x40 MSTORE DUP1 MLOAD SWAP1 PUSH1 0x20 ADD KECCAK256 PUSH1 0x6 DUP4 DUP2 SLOAD DUP2 LT PUSH2 0x3D6 JUMPI PUSH2 0x3D5 PUSH2 0x1C96 JUMP JUMPDEST JUMPDEST SWAP1 PUSH0 MSTORE PUSH1 0x20 PUSH0 KECCAK256 SWAP1 PUSH1 0x5 MUL ADD PUSH1 0x1 ADD PUSH1 0x40 MLOAD PUSH1 0x20 ADD PUSH2 0x3F5 SWAP2 SWAP1 PUSH2 0x1D5F JUMP JUMPDEST PUSH1 0x40 MLOAD PUSH1 0x20 DUP2 DUP4 SUB SUB DUP2 MSTORE SWAP1 PUSH1 0x40 MSTORE DUP1 MLOAD SWAP1 PUSH1 0x20 ADD KECCAK256 SUB PUSH2 0x441 JUMPI DUP3 DUP2 DUP2 MLOAD DUP2 LT PUSH2 0x423 JUMPI PUSH2 0x422 PUSH2 0x1C96 JUMP JUMPDEST JUMPDEST PUSH1 0x20 MUL PUSH1 0x20 ADD ADD DUP1 MLOAD DUP1 SWAP2 SWAP1 PUSH2 0x438 SWAP1 PUSH2 0x1DA2 JUMP JUMPDEST DUP2 MSTORE POP POP PUSH2 0x44E JUMP JUMPDEST DUP1 DUP1 PUSH1 0x1 ADD SWAP2 POP POP PUSH2 0x373 JUMP JUMPDEST POP DUP1 DUP1 PUSH1 0x1 ADD SWAP2 POP POP PUSH2 0x364 JUMP JUMPDEST POP PUSH1 0x5 DUP2 PUSH1 0x6 DUP1 SLOAD SWAP1 POP DUP3 DUP1 SLOAD DUP1 PUSH1 0x20 MUL PUSH1 0x20 ADD PUSH1 0x40 MLOAD SWAP1 DUP2 ADD PUSH1 0x40 MSTORE DUP1 SWAP3 SWAP2 SWAP1 DUP2 DUP2 MSTORE PUSH1 0x20 ADD PUSH0 SWAP1 JUMPDEST DUP3 DUP3 LT ISZERO PUSH2 0x52E JUMPI DUP4 DUP3 SWAP1 PUSH0 MSTORE PUSH1 0x20 PUSH0 KECCAK256 ADD DUP1 SLOAD PUSH2 0x4A3 SWAP1 PUSH2 0x1C66 JUMP JUMPDEST DUP1 PUSH1 0x1F ADD PUSH1 0x20 DUP1 SWAP2 DIV MUL PUSH1 0x20 ADD PUSH1 0x40 MLOAD SWAP1 DUP2 ADD PUSH1 0x40 MSTORE DUP1 SWAP3 SWAP2 SWAP1 DUP2 DUP2 MSTORE PUSH1 0x20 ADD DUP3 DUP1 SLOAD PUSH2 0x4CF SWAP1 PUSH2 0x1C66 JUMP JUMPDEST DUP1 ISZERO PUSH2 0x51A JUMPI DUP1 PUSH1 0x1F LT PUSH2 0x4F1 JUMPI PUSH2 0x100 DUP1 DUP4 SLOAD DIV MUL DUP4 MSTORE SWAP2 PUSH1 0x20 ADD SWAP2 PUSH2 0x51A JUMP JUMPDEST DUP3 ADD SWAP2 SWAP1 PUSH0 MSTORE PUSH1 0x20 PUSH0 KECCAK256 SWAP1 JUMPDEST DUP2 SLOAD DUP2 MSTORE SWAP1 PUSH1 0x1 ADD SWAP1 PUSH1 0x20 ADD DUP1 DUP4 GT PUSH2 0x4FD JUMPI DUP3 SWAP1 SUB PUSH1 0x1F AND DUP3 ADD SWAP2 JUMPDEST POP POP POP POP POP DUP2 MSTORE PUSH1 0x20 ADD SWAP1 PUSH1 0x1 ADD SWAP1 PUSH2 0x486 JUMP JUMPDEST POP POP POP POP SWAP3 POP SWAP4 POP SWAP4 POP SWAP4 POP POP SWAP1 SWAP2 SWAP3 JUMP JUMPDEST PUSH0 DUP1 PUSH0 ADD DUP1 SLOAD PUSH2 0x54F SWAP1 PUSH2 0x1C66 JUMP JUMPDEST DUP1 PUSH1 0x1F ADD PUSH1 0x20 DUP1 SWAP2 DIV MUL PUSH1 0x20 ADD PUSH1 0x40 MLOAD SWAP1 DUP2 ADD PUSH1 0x40 MSTORE DUP1 SWAP3 SWAP2 SWAP1 DUP2 DUP2 MSTORE PUSH1 0x20 ADD DUP3 DUP1 SLOAD PUSH2 0x57B SWAP1 PUSH2 0x1C66 JUMP JUMPDEST DUP1 ISZERO PUSH2 0x5C6 JUMPI DUP1 PUSH1 0x1F LT PUSH2 0x59D JUMPI PUSH2 0x100 DUP1 DUP4 SLOAD DIV MUL DUP4 MSTORE SWAP2 PUSH1 0x20 ADD SWAP2 PUSH2 0x5C6 JUMP JUMPDEST DUP3 ADD SWAP2 SWAP1 PUSH0 MSTORE PUSH1 0x20 PUSH0 KECCAK256 SWAP1 JUMPDEST DUP2 SLOAD DUP2 MSTORE SWAP1 PUSH1 0x1 ADD SWAP1 PUSH1 0x20 ADD DUP1 DUP4 GT PUSH2 0x5A9 JUMPI DUP3 SWAP1 SUB PUSH1 0x1F AND DUP3 ADD SWAP2 JUMPDEST POP POP POP POP POP SWAP1 DUP1 PUSH1 0x1 ADD DUP1 SLOAD PUSH2 0x5DB SWAP1 PUSH2 0x1C66 JUMP JUMPDEST DUP1 PUSH1 0x1F ADD PUSH1 0x20 DUP1 SWAP2 DIV MUL PUSH1 0x20 ADD PUSH1 0x40 MLOAD SWAP1 DUP2 ADD PUSH1 0x40 MSTORE DUP1 SWAP3 SWAP2 SWAP1 DUP2 DUP2 MSTORE PUSH1 0x20 ADD DUP3 DUP1 SLOAD PUSH2 0x607 SWAP1 PUSH2 0x1C66 JUMP JUMPDEST DUP1 ISZERO PUSH2 0x652 JUMPI DUP1 PUSH1 0x1F LT PUSH2 0x629 JUMPI PUSH2 0x100 DUP1 DUP4 SLOAD DIV MUL DUP4 MSTORE SWAP2 PUSH1 0x20 ADD SWAP2 PUSH2 0x652 JUMP JUMPDEST DUP3 ADD SWAP2 SWAP1 PUSH0 MSTORE PUSH1 0x20 PUSH0 KECCAK256 SWAP1 JUMPDEST DUP2 SLOAD DUP2 MSTORE SWAP1 PUSH1 0x1 ADD SWAP1 PUSH1 0x20 ADD DUP1 DUP4 GT PUSH2 0x635 JUMPI DUP3 SWAP1 SUB PUSH1 0x1F AND DUP3 ADD SWAP2 JUMPDEST POP POP POP POP POP SWAP1 DUP1 PUSH1 0x2 ADD SLOAD SWAP1 DUP1 PUSH1 0x3 ADD SLOAD SWAP1 DUP1 PUSH1 0x4 ADD PUSH0 SWAP1 SLOAD SWAP1 PUSH2 0x100 EXP SWAP1 DIV PUSH1 0xFF AND SWAP1 POP DUP6 JUMP JUMPDEST PUSH1 0x6 DUP2 DUP2 SLOAD DUP2 LT PUSH2 0x689 JUMPI PUSH0 DUP1 REVERT JUMPDEST SWAP1 PUSH0 MSTORE PUSH1 0x20 PUSH0 KECCAK256 SWAP1 PUSH1 0x5 MUL ADD PUSH0 SWAP2 POP SWAP1 POP DUP1 PUSH0 ADD DUP1 SLOAD PUSH2 0x6A8 SWAP1 PUSH2 0x1C66 JUMP JUMPDEST DUP1 PUSH1 0x1F ADD PUSH1 0x20 DUP1 SWAP2 DIV MUL PUSH1 0x20 ADD PUSH1 0x40 MLOAD SWAP1 DUP2 ADD PUSH1 0x40 MSTORE DUP1 SWAP3 SWAP2 SWAP1 DUP2 DUP2 MSTORE PUSH1 0x20 ADD DUP3 DUP1 SLOAD PUSH2 0x6D4 SWAP1 PUSH2 0x1C66 JUMP JUMPDEST DUP1 ISZERO PUSH2 0x71F JUMPI DUP1 PUSH1 0x1F LT PUSH2 0x6F6 JUMPI PUSH2 0x100 DUP1 DUP4 SLOAD DIV MUL DUP4 MSTORE SWAP2 PUSH1 0x20 ADD SWAP2 PUSH2 0x71F JUMP JUMPDEST DUP3 ADD SWAP2 SWAP1 PUSH0 MSTORE PUSH1 0x20 PUSH0 KECCAK256 SWAP1 JUMPDEST DUP2 SLOAD DUP2 MSTORE SWAP1 PUSH1 0x1 ADD SWAP1 PUSH1 0x20 ADD DUP1 DUP4 GT PUSH2 0x702 JUMPI DUP3 SWAP1 SUB PUSH1 0x1F AND DUP3 ADD SWAP2 JUMPDEST POP POP POP POP POP SWAP1 DUP1 PUSH1 0x1 ADD DUP1 SLOAD PUSH2 0x734 SWAP1 PUSH2 0x1C66 JUMP JUMPDEST DUP1 PUSH1 0x1F ADD PUSH1 0x20 DUP1 SWAP2 DIV MUL PUSH1 0x20 ADD PUSH1 0x40 MLOAD SWAP1 DUP2 ADD PUSH1 0x40 MSTORE DUP1 SWAP3 SWAP2 SWAP1 DUP2 DUP2 MSTORE PUSH1 0x20 ADD DUP3 DUP1 SLOAD PUSH2 0x760 SWAP1 PUSH2 0x1C66 JUMP JUMPDEST DUP1 ISZERO PUSH2 0x7AB JUMPI DUP1 PUSH1 0x1F LT PUSH2 0x782 JUMPI PUSH2 0x100 DUP1 DUP4 SLOAD DIV MUL DUP4 MSTORE SWAP2 PUSH1 0x20 ADD SWAP2 PUSH2 0x7AB JUMP JUMPDEST DUP3 ADD SWAP2 SWAP1 PUSH0 MSTORE PUSH1 0x20 PUSH0 KECCAK256 SWAP1 JUMPDEST DUP2 SLOAD DUP2 MSTORE SWAP1 PUSH1 0x1 ADD SWAP1 PUSH1 0x20 ADD DUP1 DUP4 GT PUSH2 0x78E JUMPI DUP3 SWAP1 SUB PUSH1 0x1F AND DUP3 ADD SWAP2 JUMPDEST POP POP POP POP POP SWAP1 DUP1 PUSH1 0x2 ADD DUP1 SLOAD PUSH2 0x7C0 SWAP1 PUSH2 0x1C66 JUMP JUMPDEST DUP1 PUSH1 0x1F ADD PUSH1 0x20 DUP1 SWAP2 DIV MUL PUSH1 0x20 ADD PUSH1 0x40 MLOAD SWAP1 DUP2 ADD PUSH1 0x40 MSTORE DUP1 SWAP3 SWAP2 SWAP1 DUP2 DUP2 MSTORE PUSH1 0x20 ADD DUP3 DUP1 SLOAD PUSH2 0x7EC SWAP1 PUSH2 0x1C66 JUMP JUMPDEST DUP1 ISZERO PUSH2 0x837 JUMPI DUP1 PUSH1 0x1F LT PUSH2 0x80E JUMPI PUSH2 0x100 DUP1 DUP4 SLOAD DIV MUL DUP4 MSTORE SWAP2 PUSH1 0x20 ADD SWAP2 PUSH2 0x837 JUMP JUMPDEST DUP3 ADD SWAP2 SWAP1 PUSH0 MSTORE PUSH1 0x20 PUSH0 KECCAK256 SWAP1 JUMPDEST DUP2 SLOAD DUP2 MSTORE SWAP1 PUSH1 0x1 ADD SWAP1 PUSH1 0x20 ADD DUP1 DUP4 GT PUSH2 0x81A JUMPI DUP3 SWAP1 SUB PUSH1 0x1F AND DUP3 ADD SWAP2 JUMPDEST POP POP POP POP POP SWAP1 DUP1 PUSH1 0x3 ADD SLOAD SWAP1 DUP1 PUSH1 0x4 ADD SLOAD SWAP1 POP DUP6 JUMP JUMPDEST PUSH0 DUP1 PUSH1 0x4 ADD PUSH0 SWAP1 SLOAD SWAP1 PUSH2 0x100 EXP SWAP1 DIV PUSH1 0xFF AND PUSH2 0x89E JUMPI PUSH1 0x40 MLOAD PUSH32 0x8C379A000000000000000000000000000000000000000000000000000000000 DUP2 MSTORE PUSH1 0x4 ADD PUSH2 0x895 SWAP1 PUSH2 0x1E33 JUMP JUMPDEST PUSH1 0x40 MLOAD DUP1 SWAP2 SUB SWAP1 REVERT JUMPDEST PUSH0 DUP1 PUSH1 0x4 ADD PUSH0 PUSH2 0x100 EXP DUP2 SLOAD DUP2 PUSH1 0xFF MUL NOT AND SWAP1 DUP4 ISZERO ISZERO MUL OR SWAP1 SSTORE POP TIMESTAMP PUSH0 PUSH1 0x3 ADD DUP2 SWAP1 SSTORE POP PUSH32 0x18C0C2FB1301EB540EAF37AF6D3C8F206262F58D7832E9211556DD0BE6152183 PUSH0 DUP1 ADD TIMESTAMP PUSH1 0x6 DUP1 SLOAD SWAP1 POP PUSH1 0x40 MLOAD PUSH2 0x8FC SWAP4 SWAP3 SWAP2 SWAP1 PUSH2 0x1ED2 JUMP JUMPDEST PUSH1 0x40 MLOAD DUP1 SWAP2 SUB SWAP1 LOG1 PUSH1 0x1 SWAP1 POP SWAP1 JUMP JUMPDEST PUSH1 0x60 PUSH0 DUP1 PUSH0 DUP6 DUP6 PUSH2 0x91C SWAP2 SWAP1 PUSH2 0x1F0E JUMP JUMPDEST SWAP1 POP PUSH0 DUP7 DUP3 PUSH2 0x92B SWAP2 SWAP1 PUSH2 0x1F4F JUMP JUMPDEST SWAP1 POP PUSH1 0x6 DUP1 SLOAD SWAP1 POP DUP2 GT ISZERO PUSH2 0x943 JUMPI PUSH1 0x6 DUP1 SLOAD SWAP1 POP SWAP1 POP JUMPDEST PUSH1 0x6 DUP1 SLOAD SWAP1 POP DUP3 LT PUSH2 0x9BC JUMPI PUSH0 DUP1 PUSH8 0xFFFFFFFFFFFFFFFF DUP2 GT ISZERO PUSH2 0x96A JUMPI PUSH2 0x969 PUSH2 0x138E JUMP JUMPDEST JUMPDEST PUSH1 0x40 MLOAD SWAP1 DUP1 DUP3 MSTORE DUP1 PUSH1 0x20 MUL PUSH1 0x20 ADD DUP3 ADD PUSH1 0x40 MSTORE DUP1 ISZERO PUSH2 0x9A3 JUMPI DUP2 PUSH1 0x20 ADD JUMPDEST PUSH2 0x990 PUSH2 0x114F JUMP JUMPDEST DUP2 MSTORE PUSH1 0x20 ADD SWAP1 PUSH1 0x1 SWAP1 SUB SWAP1 DUP2 PUSH2 0x988 JUMPI SWAP1 POP JUMPDEST POP SWAP1 POP DUP1 PUSH1 0x6 DUP1 SLOAD SWAP1 POP PUSH0 SWAP6 POP SWAP6 POP SWAP6 POP POP POP POP PUSH2 0xC70 JUMP JUMPDEST PUSH0 DUP3 DUP3 PUSH2 0x9C9 SWAP2 SWAP1 PUSH2 0x1F82 JUMP JUMPDEST SWAP1 POP PUSH0 DUP2 PUSH8 0xFFFFFFFFFFFFFFFF DUP2 GT ISZERO PUSH2 0x9E6 JUMPI PUSH2 0x9E5 PUSH2 0x138E JUMP JUMPDEST JUMPDEST PUSH1 0x40 MLOAD SWAP1 DUP1 DUP3 MSTORE DUP1 PUSH1 0x20 MUL PUSH1 0x20 ADD DUP3 ADD PUSH1 0x40 MSTORE DUP1 ISZERO PUSH2 0xA1F JUMPI DUP2 PUSH1 0x20 ADD JUMPDEST PUSH2 0xA0C PUSH2 0x114F JUMP JUMPDEST DUP2 MSTORE PUSH1 0x20 ADD SWAP1 PUSH1 0x1 SWAP1 SUB SWAP1 DUP2 PUSH2 0xA04 JUMPI SWAP1 POP JUMPDEST POP SWAP1 POP PUSH0 JUMPDEST DUP3 DUP2 LT ISZERO PUSH2 0xC50 JUMPI PUSH1 0x6 DUP2 DUP7 PUSH2 0xA3A SWAP2 SWAP1 PUSH2 0x1F4F JUMP JUMPDEST DUP2 SLOAD DUP2 LT PUSH2 0xA4B JUMPI PUSH2 0xA4A PUSH2 0x1C96 JUMP JUMPDEST JUMPDEST SWAP1 PUSH0 MSTORE PUSH1 0x20 PUSH0 KECCAK256 SWAP1 PUSH1 0x5 MUL ADD PUSH1 0x40 MLOAD DUP1 PUSH1 0xA0 ADD PUSH1 0x40 MSTORE SWAP1 DUP2 PUSH0 DUP3 ADD DUP1 SLOAD PUSH2 0xA71 SWAP1 PUSH2 0x1C66 JUMP JUMPDEST DUP1 PUSH1 0x1F ADD PUSH1 0x20 DUP1 SWAP2 DIV MUL PUSH1 0x20 ADD PUSH1 0x40 MLOAD SWAP1 DUP2 ADD PUSH1 0x40 MSTORE DUP1 SWAP3 SWAP2 SWAP1 DUP2 DUP2 MSTORE PUSH1 0x20 ADD DUP3 DUP1 SLOAD PUSH2 0xA9D SWAP1 PUSH2 0x1C66 JUMP JUMPDEST DUP1 ISZERO PUSH2 0xAE8 JUMPI DUP1 PUSH1 0x1F LT PUSH2 0xABF JUMPI PUSH2 0x100 DUP1 DUP4 SLOAD DIV MUL DUP4 MSTORE SWAP2 PUSH1 0x20 ADD SWAP2 PUSH2 0xAE8 JUMP JUMPDEST DUP3 ADD SWAP2 SWAP1 PUSH0 MSTORE PUSH1 0x20 PUSH0 KECCAK256 SWAP1 JUMPDEST DUP2 SLOAD DUP2 MSTORE SWAP1 PUSH1 0x1 ADD SWAP1 PUSH1 0x20 ADD DUP1 DUP4 GT PUSH2 0xACB JUMPI DUP3 SWAP1 SUB PUSH1 0x1F AND DUP3 ADD SWAP2 JUMPDEST POP POP POP POP POP DUP2 MSTORE PUSH1 0x20 ADD PUSH1 0x1 DUP3 ADD DUP1 SLOAD PUSH2 0xB01 SWAP1 PUSH2 0x1C66 JUMP JUMPDEST DUP1 PUSH1 0x1F ADD PUSH1 0x20 DUP1 SWAP2 DIV MUL PUSH1 0x20 ADD PUSH1 0x40 MLOAD SWAP1 DUP2 ADD PUSH1 0x40 MSTORE DUP1 SWAP3 SWAP2 SWAP1 DUP2 DUP2 MSTORE PUSH1 0x20 ADD DUP3 DUP1 SLOAD PUSH2 0xB2D SWAP1 PUSH2 0x1C66 JUMP JUMPDEST DUP1 ISZERO PUSH2 0xB78 JUMPI DUP1 PUSH1 0x1F LT PUSH2 0xB4F JUMPI PUSH2 0x100 DUP1 DUP4 SLOAD DIV MUL DUP4 MSTORE SWAP2 PUSH1 0x20 ADD SWAP2 PUSH2 0xB78 JUMP JUMPDEST DUP3 ADD SWAP2 SWAP1 PUSH0 MSTORE PUSH1 0x20 PUSH0 KECCAK256 SWAP1 JUMPDEST DUP2 SLOAD DUP2 MSTORE SWAP1 PUSH1 0x1 ADD SWAP1 PUSH1 0x20 ADD DUP1 DUP4 GT PUSH2 0xB5B JUMPI DUP3 SWAP1 SUB PUSH1 0x1F AND DUP3 ADD SWAP2 JUMPDEST POP POP POP POP POP DUP2 MSTORE PUSH1 0x20 ADD PUSH1 0x2 DUP3 ADD DUP1 SLOAD PUSH2 0xB91 SWAP1 PUSH2 0x1C66 JUMP JUMPDEST DUP1 PUSH1 0x1F ADD PUSH1 0x20 DUP1 SWAP2 DIV MUL PUSH1 0x20 ADD PUSH1 0x40 MLOAD SWAP1 DUP2 ADD PUSH1 0x40 MSTORE DUP1 SWAP3 SWAP2 SWAP1 DUP2 DUP2 MSTORE PUSH1 0x20 ADD DUP3 DUP1 SLOAD PUSH2 0xBBD SWAP1 PUSH2 0x1C66 JUMP JUMPDEST DUP1 ISZERO PUSH2 0xC08 JUMPI DUP1 PUSH1 0x1F LT PUSH2 0xBDF JUMPI PUSH2 0x100 DUP1 DUP4 SLOAD DIV MUL DUP4 MSTORE SWAP2 PUSH1 0x20 ADD SWAP2 PUSH2 0xC08 JUMP JUMPDEST DUP3 ADD SWAP2 SWAP1 PUSH0 MSTORE PUSH1 0x20 PUSH0 KECCAK256 SWAP1 JUMPDEST DUP2 SLOAD DUP2 MSTORE SWAP1 PUSH1 0x1 ADD SWAP1 PUSH1 0x20 ADD DUP1 DUP4 GT PUSH2 0xBEB JUMPI DUP3 SWAP1 SUB PUSH1 0x1F AND DUP3 ADD SWAP2 JUMPDEST POP POP POP POP POP DUP2 MSTORE PUSH1 0x20 ADD PUSH1 0x3 DUP3 ADD SLOAD DUP2 MSTORE PUSH1 0x20 ADD PUSH1 0x4 DUP3 ADD SLOAD DUP2 MSTORE POP POP DUP3 DUP3 DUP2 MLOAD DUP2 LT PUSH2 0xC38 JUMPI PUSH2 0xC37 PUSH2 0x1C96 JUMP JUMPDEST JUMPDEST PUSH1 0x20 MUL PUSH1 0x20 ADD ADD DUP2 SWAP1 MSTORE POP DUP1 DUP1 PUSH1 0x1 ADD SWAP2 POP POP PUSH2 0xA24 JUMP JUMPDEST POP PUSH0 PUSH1 0x6 DUP1 SLOAD SWAP1 POP DUP5 LT SWAP1 POP DUP2 PUSH1 0x6 DUP1 SLOAD SWAP1 POP DUP3 SWAP8 POP SWAP8 POP SWAP8 POP POP POP POP POP POP JUMPDEST SWAP3 POP SWAP3 POP SWAP3 JUMP JUMPDEST PUSH0 DUP1 PUSH0 DUP1 PUSH1 0x4 ADD PUSH0 SWAP1 SLOAD SWAP1 PUSH2 0x100 EXP SWAP1 DIV PUSH1 0xFF AND NUMBER PUSH1 0x6 DUP1 SLOAD SWAP1 POP SWAP3 POP SWAP3 POP SWAP3 POP SWAP1 SWAP2 SWAP3 JUMP JUMPDEST PUSH0 PUSH1 0x4 ADD PUSH0 SWAP1 SLOAD SWAP1 PUSH2 0x100 EXP SWAP1 DIV PUSH1 0xFF AND ISZERO PUSH2 0xCEE JUMPI PUSH1 0x40 MLOAD PUSH32 0x8C379A000000000000000000000000000000000000000000000000000000000 DUP2 MSTORE PUSH1 0x4 ADD PUSH2 0xCE5 SWAP1 PUSH2 0x1FFF JUMP JUMPDEST PUSH1 0x40 MLOAD DUP1 SWAP2 SUB SWAP1 REVERT JUMPDEST DUP4 PUSH0 DUP1 ADD SWAP1 DUP2 PUSH2 0xCFE SWAP2 SWAP1 PUSH2 0x21A8 JUMP JUMPDEST POP DUP5 PUSH0 PUSH1 0x1 ADD SWAP1 DUP2 PUSH2 0xD10 SWAP2 SWAP1 PUSH2 0x21A8 JUMP JUMPDEST POP PUSH0 DUP3 GT PUSH2 0xD1E JUMPI TIMESTAMP PUSH2 0xD20 JUMP JUMPDEST DUP2 JUMPDEST PUSH0 PUSH1 0x2 ADD DUP2 SWAP1 SSTORE POP DUP1 PUSH0 PUSH1 0x3 ADD DUP2 SWAP1 SSTORE POP PUSH1 0x1 PUSH0 PUSH1 0x4 ADD PUSH0 PUSH2 0x100 EXP DUP2 SLOAD DUP2 PUSH1 0xFF MUL NOT AND SWAP1 DUP4 ISZERO ISZERO MUL OR SWAP1 SSTORE POP PUSH1 0x5 PUSH0 PUSH2 0xD5A SWAP2 SWAP1 PUSH2 0x117C JUMP JUMPDEST PUSH1 0x6 PUSH0 PUSH2 0xD67 SWAP2 SWAP1 PUSH2 0x119A JUMP JUMPDEST PUSH0 JUMPDEST DUP4 MLOAD DUP2 LT ISZERO PUSH2 0xDCB JUMPI PUSH1 0x5 DUP5 DUP3 DUP2 MLOAD DUP2 LT PUSH2 0xD87 JUMPI PUSH2 0xD86 PUSH2 0x1C96 JUMP JUMPDEST JUMPDEST PUSH1 0x20 MUL PUSH1 0x20 ADD ADD MLOAD SWAP1 DUP1 PUSH1 0x1 DUP2 SLOAD ADD DUP1 DUP3 SSTORE DUP1 SWAP2 POP POP PUSH1 0x1 SWAP1 SUB SWAP1 PUSH0 MSTORE PUSH1 0x20 PUSH0 KECCAK256 ADD PUSH0 SWAP1 SWAP2 SWAP1 SWAP2 SWAP1 SWAP2 POP SWAP1 DUP2 PUSH2 0xDBD SWAP2 SWAP1 PUSH2 0x21A8 JUMP JUMPDEST POP DUP1 DUP1 PUSH1 0x1 ADD SWAP2 POP POP PUSH2 0xD69 JUMP JUMPDEST POP POP POP POP POP POP JUMP JUMPDEST PUSH0 DUP1 PUSH1 0x4 ADD PUSH0 SWAP1 SLOAD SWAP1 PUSH2 0x100 EXP SWAP1 DIV PUSH1 0xFF AND PUSH2 0xE24 JUMPI PUSH1 0x40 MLOAD PUSH32 0x8C379A000000000000000000000000000000000000000000000000000000000 DUP2 MSTORE PUSH1 0x4 ADD PUSH2 0xE1B SWAP1 PUSH2 0x22C1 JUMP JUMPDEST PUSH1 0x40 MLOAD DUP1 SWAP2 SUB SWAP1 REVERT JUMPDEST PUSH0 PUSH1 0x2 ADD SLOAD TIMESTAMP LT ISZERO PUSH2 0xE6B JUMPI PUSH1 0x40 MLOAD PUSH32 0x8C379A000000000000000000000000000000000000000000000000000000000 DUP2 MSTORE PUSH1 0x4 ADD PUSH2 0xE62 SWAP1 PUSH2 0x2329 JUMP JUMPDEST PUSH1 0x40 MLOAD DUP1 SWAP2 SUB SWAP1 REVERT JUMPDEST PUSH0 DUP1 PUSH1 0x3 ADD SLOAD EQ DUP1 PUSH2 0xE81 JUMPI POP PUSH0 PUSH1 0x3 ADD SLOAD TIMESTAMP GT ISZERO JUMPDEST PUSH2 0xEC0 JUMPI PUSH1 0x40 MLOAD PUSH32 0x8C379A000000000000000000000000000000000000000000000000000000000 DUP2 MSTORE PUSH1 0x4 ADD PUSH2 0xEB7 SWAP1 PUSH2 0x2391 JUMP JUMPDEST PUSH1 0x40 MLOAD DUP1 SWAP2 SUB SWAP1 REVERT JUMPDEST PUSH0 DUP5 PUSH1 0x40 MLOAD PUSH1 0x20 ADD PUSH2 0xED2 SWAP2 SWAP1 PUSH2 0x23DF JUMP JUMPDEST PUSH1 0x40 MLOAD PUSH1 0x20 DUP2 DUP4 SUB SUB DUP2 MSTORE SWAP1 PUSH1 0x40 MSTORE DUP1 MLOAD SWAP1 PUSH1 0x20 ADD KECCAK256 SWAP1 POP PUSH1 0x7 DUP6 PUSH1 0x40 MLOAD PUSH2 0xEFA SWAP2 SWAP1 PUSH2 0x23DF JUMP JUMPDEST SWAP1 DUP2 MSTORE PUSH1 0x20 ADD PUSH1 0x40 MLOAD DUP1 SWAP2 SUB SWAP1 KECCAK256 PUSH0 SWAP1 SLOAD SWAP1 PUSH2 0x100 EXP SWAP1 DIV PUSH1 0xFF AND ISZERO PUSH2 0xF55 JUMPI PUSH1 0x40 MLOAD PUSH32 0x8C379A000000000000000000000000000000000000000000000000000000000 DUP2 MSTORE PUSH1 0x4 ADD PUSH2 0xF4C SWAP1 PUSH2 0x243F JUMP JUMPDEST PUSH1 0x40 MLOAD DUP1 SWAP2 SUB SWAP1 REVERT JUMPDEST PUSH0 DUP1 JUMPDEST PUSH1 0x5 DUP1 SLOAD SWAP1 POP DUP2 LT ISZERO PUSH2 0xFE9 JUMPI DUP6 PUSH1 0x40 MLOAD PUSH1 0x20 ADD PUSH2 0xF76 SWAP2 SWAP1 PUSH2 0x23DF JUMP JUMPDEST PUSH1 0x40 MLOAD PUSH1 0x20 DUP2 DUP4 SUB SUB DUP2 MSTORE SWAP1 PUSH1 0x40 MSTORE DUP1 MLOAD SWAP1 PUSH1 0x20 ADD KECCAK256 PUSH1 0x5 DUP3 DUP2 SLOAD DUP2 LT PUSH2 0xFA0 JUMPI PUSH2 0xF9F PUSH2 0x1C96 JUMP JUMPDEST JUMPDEST SWAP1 PUSH0 MSTORE PUSH1 0x20 PUSH0 KECCAK256 ADD PUSH1 0x40 MLOAD PUSH1 0x20 ADD PUSH2 0xFB8 SWAP2 SWAP1 PUSH2 0x1D5F JUMP JUMPDEST PUSH1 0x40 MLOAD PUSH1 0x20 DUP2 DUP4 SUB SUB DUP2 MSTORE SWAP1 PUSH1 0x40 MSTORE DUP1 MLOAD SWAP1 PUSH1 0x20 ADD KECCAK256 SUB PUSH2 0xFDC JUMPI PUSH1 0x1 SWAP2 POP PUSH2 0xFE9 JUMP JUMPDEST DUP1 DUP1 PUSH1 0x1 ADD SWAP2 POP POP PUSH2 0xF58 JUMP JUMPDEST POP DUP1 PUSH2 0x102A JUMPI PUSH1 0x40 MLOAD PUSH32 0x8C379A000000000000000000000000000000000000000000000000000000000 DUP2 MSTORE PUSH1 0x4 ADD PUSH2 0x1021 SWAP1 PUSH2 0x24A7 JUMP JUMPDEST PUSH1 0x40 MLOAD DUP1 SWAP2 SUB SWAP1 REVERT JUMPDEST PUSH1 0x6 PUSH1 0x40 MLOAD DUP1 PUSH1 0xA0 ADD PUSH1 0x40 MSTORE DUP1 DUP9 DUP2 MSTORE PUSH1 0x20 ADD DUP8 DUP2 MSTORE PUSH1 0x20 ADD DUP7 DUP2 MSTORE PUSH1 0x20 ADD TIMESTAMP DUP2 MSTORE PUSH1 0x20 ADD NUMBER DUP2 MSTORE POP SWAP1 DUP1 PUSH1 0x1 DUP2 SLOAD ADD DUP1 DUP3 SSTORE DUP1 SWAP2 POP POP PUSH1 0x1 SWAP1 SUB SWAP1 PUSH0 MSTORE PUSH1 0x20 PUSH0 KECCAK256 SWAP1 PUSH1 0x5 MUL ADD PUSH0 SWAP1 SWAP2 SWAP1 SWAP2 SWAP1 SWAP2 POP PUSH0 DUP3 ADD MLOAD DUP2 PUSH0 ADD SWAP1 DUP2 PUSH2 0x108C SWAP2 SWAP1 PUSH2 0x21A8 JUMP JUMPDEST POP PUSH1 0x20 DUP3 ADD MLOAD DUP2 PUSH1 0x1 ADD SWAP1 DUP2 PUSH2 0x10A2 SWAP2 SWAP1 PUSH2 0x21A8 JUMP JUMPDEST POP PUSH1 0x40 DUP3 ADD MLOAD DUP2 PUSH1 0x2 ADD SWAP1 DUP2 PUSH2 0x10B8 SWAP2 SWAP1 PUSH2 0x21A8 JUMP JUMPDEST POP PUSH1 0x60 DUP3 ADD MLOAD DUP2 PUSH1 0x3 ADD SSTORE PUSH1 0x80 DUP3 ADD MLOAD DUP2 PUSH1 0x4 ADD SSTORE POP POP PUSH1 0x1 PUSH1 0x7 DUP8 PUSH1 0x40 MLOAD PUSH2 0x10E1 SWAP2 SWAP1 PUSH2 0x23DF JUMP JUMPDEST SWAP1 DUP2 MSTORE PUSH1 0x20 ADD PUSH1 0x40 MLOAD DUP1 SWAP2 SUB SWAP1 KECCAK256 PUSH0 PUSH2 0x100 EXP DUP2 SLOAD DUP2 PUSH1 0xFF MUL NOT AND SWAP1 DUP4 ISZERO ISZERO MUL OR SWAP1 SSTORE POP PUSH32 0xE887A24A748917ED4A479DD7FC032FF816B08BE2EFA7C2656BD9363AEE284581 DUP7 DUP7 TIMESTAMP NUMBER PUSH1 0x40 MLOAD PUSH2 0x113A SWAP5 SWAP4 SWAP3 SWAP2 SWAP1 PUSH2 0x24C5 JUMP JUMPDEST PUSH1 0x40 MLOAD DUP1 SWAP2 SUB SWAP1 LOG1 PUSH1 0x1 SWAP3 POP POP POP SWAP4 SWAP3 POP POP POP JUMP JUMPDEST PUSH1 0x40 MLOAD DUP1 PUSH1 0xA0 ADD PUSH1 0x40 MSTORE DUP1 PUSH1 0x60 DUP2 MSTORE PUSH1 0x20 ADD PUSH1 0x60 DUP2 MSTORE PUSH1 0x20 ADD PUSH1 0x60 DUP2 MSTORE PUSH1 0x20 ADD PUSH0 DUP2 MSTORE PUSH1 0x20 ADD PUSH0 DUP2 MSTORE POP SWAP1 JUMP JUMPDEST POP DUP1 SLOAD PUSH0 DUP3 SSTORE SWAP1 PUSH0 MSTORE PUSH1 0x20 PUSH0 KECCAK256 SWAP1 DUP2 ADD SWAP1 PUSH2 0x1197 SWAP2 SWAP1 PUSH2 0x11BB JUMP JUMPDEST POP JUMP JUMPDEST POP DUP1 SLOAD PUSH0 DUP3 SSTORE PUSH1 0x5 MUL SWAP1 PUSH0 MSTORE PUSH1 0x20 PUSH0 KECCAK256 SWAP1 DUP2 ADD SWAP1 PUSH2 0x11B8 SWAP2 SWAP1 PUSH2 0x11DE JUMP JUMPDEST POP JUMP JUMPDEST JUMPDEST DUP1 DUP3 GT ISZERO PUSH2 0x11DA JUMPI PUSH0 DUP2 DUP2 PUSH2 0x11D1 SWAP2 SWAP1 PUSH2 0x122F JUMP JUMPDEST POP PUSH1 0x1 ADD PUSH2 0x11BC JUMP JUMPDEST POP SWAP1 JUMP JUMPDEST JUMPDEST DUP1 DUP3 GT ISZERO PUSH2 0x122B JUMPI PUSH0 DUP1 DUP3 ADD PUSH0 PUSH2 0x11F6 SWAP2 SWAP1 PUSH2 0x122F JUMP JUMPDEST PUSH1 0x1 DUP3 ADD PUSH0 PUSH2 0x1205 SWAP2 SWAP1 PUSH2 0x122F JUMP JUMPDEST PUSH1 0x2 DUP3 ADD PUSH0 PUSH2 0x1214 SWAP2 SWAP1 PUSH2 0x122F JUMP JUMPDEST PUSH1 0x3 DUP3 ADD PUSH0 SWAP1 SSTORE PUSH1 0x4 DUP3 ADD PUSH0 SWAP1 SSTORE POP PUSH1 0x5 ADD PUSH2 0x11DF JUMP JUMPDEST POP SWAP1 JUMP JUMPDEST POP DUP1 SLOAD PUSH2 0x123B SWAP1 PUSH2 0x1C66 JUMP JUMPDEST PUSH0 DUP3 SSTORE DUP1 PUSH1 0x1F LT PUSH2 0x124C JUMPI POP PUSH2 0x1269 JUMP JUMPDEST PUSH1 0x1F ADD PUSH1 0x20 SWAP1 DIV SWAP1 PUSH0 MSTORE PUSH1 0x20 PUSH0 KECCAK256 SWAP1 DUP2 ADD SWAP1 PUSH2 0x1268 SWAP2 SWAP1 PUSH2 0x126C JUMP JUMPDEST JUMPDEST POP JUMP JUMPDEST JUMPDEST DUP1 DUP3 GT ISZERO PUSH2 0x1283 JUMPI PUSH0 DUP2 PUSH0 SWAP1 SSTORE POP PUSH1 0x1 ADD PUSH2 0x126D JUMP JUMPDEST POP SWAP1 JUMP JUMPDEST PUSH0 PUSH1 0x40 MLOAD SWAP1 POP SWAP1 JUMP JUMPDEST PUSH0 DUP1 REVERT JUMPDEST PUSH0 DUP1 REVERT JUMPDEST PUSH0 DUP2 SWAP1 POP SWAP2 SWAP1 POP JUMP JUMPDEST PUSH2 0x12AA DUP2 PUSH2 0x1298 JUMP JUMPDEST DUP2 EQ PUSH2 0x12B4 JUMPI PUSH0 DUP1 REVERT JUMPDEST POP JUMP JUMPDEST PUSH0 DUP2 CALLDATALOAD SWAP1 POP PUSH2 0x12C5 DUP2 PUSH2 0x12A1 JUMP JUMPDEST SWAP3 SWAP2 POP POP JUMP JUMPDEST PUSH0 PUSH1 0x20 DUP3 DUP5 SUB SLT ISZERO PUSH2 0x12E0 JUMPI PUSH2 0x12DF PUSH2 0x1290 JUMP JUMPDEST JUMPDEST PUSH0 PUSH2 0x12ED DUP5 DUP3 DUP6 ADD PUSH2 0x12B7 JUMP JUMPDEST SWAP2 POP POP SWAP3 SWAP2 POP POP JUMP JUMPDEST PUSH0 DUP2 MLOAD SWAP1 POP SWAP2 SWAP1 POP JUMP JUMPDEST PUSH0 DUP3 DUP3 MSTORE PUSH1 0x20 DUP3 ADD SWAP1 POP SWAP3 SWAP2 POP POP JUMP JUMPDEST DUP3 DUP2 DUP4 MCOPY PUSH0 DUP4 DUP4 ADD MSTORE POP POP POP JUMP JUMPDEST PUSH0 PUSH1 0x1F NOT PUSH1 0x1F DUP4 ADD AND SWAP1 POP SWAP2 SWAP1 POP JUMP JUMPDEST PUSH0 PUSH2 0x1338 DUP3 PUSH2 0x12F6 JUMP JUMPDEST PUSH2 0x1342 DUP2 DUP6 PUSH2 0x1300 JUMP JUMPDEST SWAP4 POP PUSH2 0x1352 DUP2 DUP6 PUSH1 0x20 DUP7 ADD PUSH2 0x1310 JUMP JUMPDEST PUSH2 0x135B DUP2 PUSH2 0x131E JUMP JUMPDEST DUP5 ADD SWAP2 POP POP SWAP3 SWAP2 POP POP JUMP JUMPDEST PUSH0 PUSH1 0x20 DUP3 ADD SWAP1 POP DUP2 DUP2 SUB PUSH0 DUP4 ADD MSTORE PUSH2 0x137E DUP2 DUP5 PUSH2 0x132E JUMP JUMPDEST SWAP1 POP SWAP3 SWAP2 POP POP JUMP JUMPDEST PUSH0 DUP1 REVERT JUMPDEST PUSH0 DUP1 REVERT JUMPDEST PUSH32 0x4E487B7100000000000000000000000000000000000000000000000000000000 PUSH0 MSTORE PUSH1 0x41 PUSH1 0x4 MSTORE PUSH1 0x24 PUSH0 REVERT JUMPDEST PUSH2 0x13C4 DUP3 PUSH2 0x131E JUMP JUMPDEST DUP2 ADD DUP2 DUP2 LT PUSH8 0xFFFFFFFFFFFFFFFF DUP3 GT OR ISZERO PUSH2 0x13E3 JUMPI PUSH2 0x13E2 PUSH2 0x138E JUMP JUMPDEST JUMPDEST DUP1 PUSH1 0x40 MSTORE POP POP POP JUMP JUMPDEST PUSH0 PUSH2 0x13F5 PUSH2 0x1287 JUMP JUMPDEST SWAP1 POP PUSH2 0x1401 DUP3 DUP3 PUSH2 0x13BB JUMP JUMPDEST SWAP2 SWAP1 POP JUMP JUMPDEST PUSH0 PUSH8 0xFFFFFFFFFFFFFFFF DUP3 GT ISZERO PUSH2 0x1420 JUMPI PUSH2 0x141F PUSH2 0x138E JUMP JUMPDEST JUMPDEST PUSH2 0x1429 DUP3 PUSH2 0x131E JUMP JUMPDEST SWAP1 POP PUSH1 0x20 DUP2 ADD SWAP1 POP SWAP2 SWAP1 POP JUMP JUMPDEST DUP3 DUP2 DUP4 CALLDATACOPY PUSH0 DUP4 DUP4 ADD MSTORE POP POP POP JUMP JUMPDEST PUSH0 PUSH2 0x1456 PUSH2 0x1451 DUP5 PUSH2 0x1406 JUMP JUMPDEST PUSH2 0x13EC JUMP JUMPDEST SWAP1 POP DUP3 DUP2 MSTORE PUSH1 0x20 DUP2 ADD DUP5 DUP5 DUP5 ADD GT ISZERO PUSH2 0x1472 JUMPI PUSH2 0x1471 PUSH2 0x138A JUMP JUMPDEST JUMPDEST PUSH2 0x147D DUP5 DUP3 DUP6 PUSH2 0x1436 JUMP JUMPDEST POP SWAP4 SWAP3 POP POP POP JUMP JUMPDEST PUSH0 DUP3 PUSH1 0x1F DUP4 ADD SLT PUSH2 0x1499 JUMPI PUSH2 0x1498 PUSH2 0x1386 JUMP JUMPDEST JUMPDEST DUP2 CALLDATALOAD PUSH2 0x14A9 DUP5 DUP3 PUSH1 0x20 DUP7 ADD PUSH2 0x1444 JUMP JUMPDEST SWAP2 POP POP SWAP3 SWAP2 POP POP JUMP JUMPDEST PUSH0 PUSH1 0x20 DUP3 DUP5 SUB SLT ISZERO PUSH2 0x14C7 JUMPI PUSH2 0x14C6 PUSH2 0x1290 JUMP JUMPDEST JUMPDEST PUSH0 DUP3 ADD CALLDATALOAD PUSH8 0xFFFFFFFFFFFFFFFF DUP2 GT ISZERO PUSH2 0x14E4 JUMPI PUSH2 0x14E3 PUSH2 0x1294 JUMP JUMPDEST JUMPDEST PUSH2 0x14F0 DUP5 DUP3 DUP6 ADD PUSH2 0x1485 JUMP JUMPDEST SWAP2 POP POP SWAP3 SWAP2 POP POP JUMP JUMPDEST PUSH0 DUP2 ISZERO ISZERO SWAP1 POP SWAP2 SWAP1 POP JUMP JUMPDEST PUSH2 0x150D DUP2 PUSH2 0x14F9 JUMP JUMPDEST DUP3 MSTORE POP POP JUMP JUMPDEST PUSH0 PUSH1 0x20 DUP3 ADD SWAP1 POP PUSH2 0x1526 PUSH0 DUP4 ADD DUP5 PUSH2 0x1504 JUMP JUMPDEST SWAP3 SWAP2 POP POP JUMP JUMPDEST PUSH0 DUP2 MLOAD SWAP1 POP SWAP2 SWAP1 POP JUMP JUMPDEST PUSH0 DUP3 DUP3 MSTORE PUSH1 0x20 DUP3 ADD SWAP1 POP SWAP3 SWAP2 POP POP JUMP JUMPDEST PUSH0 DUP2 SWAP1 POP PUSH1 0x20 DUP3 ADD SWAP1 POP SWAP2 SWAP1 POP JUMP JUMPDEST PUSH0 DUP3 DUP3 MSTORE PUSH1 0x20 DUP3 ADD SWAP1 POP SWAP3 SWAP2 POP POP JUMP JUMPDEST PUSH0 PUSH2 0x156F DUP3 PUSH2 0x12F6 JUMP JUMPDEST PUSH2 0x1579 DUP2 DUP6 PUSH2 0x1555 JUMP JUMPDEST SWAP4 POP PUSH2 0x1589 DUP2 DUP6 PUSH1 0x20 DUP7 ADD PUSH2 0x1310 JUMP JUMPDEST PUSH2 0x1592 DUP2 PUSH2 0x131E JUMP JUMPDEST DUP5 ADD SWAP2 POP POP SWAP3 SWAP2 POP POP JUMP JUMPDEST PUSH0 PUSH2 0x15A8 DUP4 DUP4 PUSH2 0x1565 JUMP JUMPDEST SWAP1 POP SWAP3 SWAP2 POP POP JUMP JUMPDEST PUSH0 PUSH1 0x20 DUP3 ADD SWAP1 POP SWAP2 SWAP1 POP JUMP JUMPDEST PUSH0 PUSH2 0x15C6 DUP3 PUSH2 0x152C JUMP JUMPDEST PUSH2 0x15D0 DUP2 DUP6 PUSH2 0x1536 JUMP JUMPDEST SWAP4 POP DUP4 PUSH1 0x20 DUP3 MUL DUP6 ADD PUSH2 0x15E2 DUP6 PUSH2 0x1546 JUMP JUMPDEST DUP1 PUSH0 JUMPDEST DUP6 DUP2 LT ISZERO PUSH2 0x161D JUMPI DUP5 DUP5 SUB DUP10 MSTORE DUP2 MLOAD PUSH2 0x15FE DUP6 DUP3 PUSH2 0x159D JUMP JUMPDEST SWAP5 POP PUSH2 0x1609 DUP4 PUSH2 0x15B0 JUMP JUMPDEST SWAP3 POP PUSH1 0x20 DUP11 ADD SWAP10 POP POP PUSH1 0x1 DUP2 ADD SWAP1 POP PUSH2 0x15E5 JUMP JUMPDEST POP DUP3 SWAP8 POP DUP8 SWAP6 POP POP POP POP POP POP SWAP3 SWAP2 POP POP JUMP JUMPDEST PUSH0 DUP2 MLOAD SWAP1 POP SWAP2 SWAP1 POP JUMP JUMPDEST PUSH0 DUP3 DUP3 MSTORE PUSH1 0x20 DUP3 ADD SWAP1 POP SWAP3 SWAP2 POP POP JUMP JUMPDEST PUSH0 DUP2 SWAP1 POP PUSH1 0x20 DUP3 ADD SWAP1 POP SWAP2 SWAP1 POP JUMP JUMPDEST PUSH2 0x1661 DUP2 PUSH2 0x1298 JUMP JUMPDEST DUP3 MSTORE POP POP JUMP JUMPDEST PUSH0 PUSH2 0x1672 DUP4 DUP4 PUSH2 0x1658 JUMP JUMPDEST PUSH1 0x20 DUP4 ADD SWAP1 POP SWAP3 SWAP2 POP POP JUMP JUMPDEST PUSH0 PUSH1 0x20 DUP3 ADD SWAP1 POP SWAP2 SWAP1 POP JUMP JUMPDEST PUSH0 PUSH2 0x1694 DUP3 PUSH2 0x162F JUMP JUMPDEST PUSH2 0x169E DUP2 DUP6 PUSH2 0x1639 JUMP JUMPDEST SWAP4 POP PUSH2 0x16A9 DUP4 PUSH2 0x1649 JUMP JUMPDEST DUP1 PUSH0 JUMPDEST DUP4 DUP2 LT ISZERO PUSH2 0x16D9 JUMPI DUP2 MLOAD PUSH2 0x16C0 DUP9 DUP3 PUSH2 0x1667 JUMP JUMPDEST SWAP8 POP PUSH2 0x16CB DUP4 PUSH2 0x167E JUMP JUMPDEST SWAP3 POP POP PUSH1 0x1 DUP2 ADD SWAP1 POP PUSH2 0x16AC JUMP JUMPDEST POP DUP6 SWAP4 POP POP POP POP SWAP3 SWAP2 POP POP JUMP JUMPDEST PUSH2 0x16EF DUP2 PUSH2 0x1298 JUMP JUMPDEST DUP3 MSTORE POP POP JUMP JUMPDEST PUSH0 PUSH1 0x60 DUP3 ADD SWAP1 POP DUP2 DUP2 SUB PUSH0 DUP4 ADD MSTORE PUSH2 0x170D DUP2 DUP7 PUSH2 0x15BC JUMP JUMPDEST SWAP1 POP DUP2 DUP2 SUB PUSH1 0x20 DUP4 ADD MSTORE PUSH2 0x1721 DUP2 DUP6 PUSH2 0x168A JUMP JUMPDEST SWAP1 POP PUSH2 0x1730 PUSH1 0x40 DUP4 ADD DUP5 PUSH2 0x16E6 JUMP JUMPDEST SWAP5 SWAP4 POP POP POP POP JUMP JUMPDEST PUSH0 PUSH1 0xA0 DUP3 ADD SWAP1 POP DUP2 DUP2 SUB PUSH0 DUP4 ADD MSTORE PUSH2 0x1750 DUP2 DUP9 PUSH2 0x132E JUMP JUMPDEST SWAP1 POP DUP2 DUP2 SUB PUSH1 0x20 DUP4 ADD MSTORE PUSH2 0x1764 DUP2 DUP8 PUSH2 0x132E JUMP JUMPDEST SWAP1 POP PUSH2 0x1773 PUSH1 0x40 DUP4 ADD DUP7 PUSH2 0x16E6 JUMP JUMPDEST PUSH2 0x1780 PUSH1 0x60 DUP4 ADD DUP6 PUSH2 0x16E6 JUMP JUMPDEST PUSH2 0x178D PUSH1 0x80 DUP4 ADD DUP5 PUSH2 0x1504 JUMP JUMPDEST SWAP7 SWAP6 POP POP POP POP POP POP JUMP JUMPDEST PUSH0 PUSH1 0xA0 DUP3 ADD SWAP1 POP DUP2 DUP2 SUB PUSH0 DUP4 ADD MSTORE PUSH2 0x17AF DUP2 DUP9 PUSH2 0x132E JUMP JUMPDEST SWAP1 POP DUP2 DUP2 SUB PUSH1 0x20 DUP4 ADD MSTORE PUSH2 0x17C3 DUP2 DUP8 PUSH2 0x132E JUMP JUMPDEST SWAP1 POP DUP2 DUP2 SUB PUSH1 0x40 DUP4 ADD MSTORE PUSH2 0x17D7 DUP2 DUP7 PUSH2 0x132E JUMP JUMPDEST SWAP1 POP PUSH2 0x17E6 PUSH1 0x60 DUP4 ADD DUP6 PUSH2 0x16E6 JUMP JUMPDEST PUSH2 0x17F3 PUSH1 0x80 DUP4 ADD DUP5 PUSH2 0x16E6 JUMP JUMPDEST SWAP7 SWAP6 POP POP POP POP POP POP JUMP JUMPDEST PUSH0 DUP1 PUSH1 0x40 DUP4 DUP6 SUB SLT ISZERO PUSH2 0x1813 JUMPI PUSH2 0x1812 PUSH2 0x1290 JUMP JUMPDEST JUMPDEST PUSH0 PUSH2 0x1820 DUP6 DUP3 DUP7 ADD PUSH2 0x12B7 JUMP JUMPDEST SWAP3 POP POP PUSH1 0x20 PUSH2 0x1831 DUP6 DUP3 DUP7 ADD PUSH2 0x12B7 JUMP JUMPDEST SWAP2 POP POP SWAP3 POP SWAP3 SWAP1 POP JUMP JUMPDEST PUSH0 DUP2 MLOAD SWAP1 POP SWAP2 SWAP1 POP JUMP JUMPDEST PUSH0 DUP3 DUP3 MSTORE PUSH1 0x20 DUP3 ADD SWAP1 POP SWAP3 SWAP2 POP POP JUMP JUMPDEST PUSH0 DUP2 SWAP1 POP PUSH1 0x20 DUP3 ADD SWAP1 POP SWAP2 SWAP1 POP JUMP JUMPDEST PUSH0 PUSH1 0xA0 DUP4 ADD PUSH0 DUP4 ADD MLOAD DUP5 DUP3 SUB PUSH0 DUP7 ADD MSTORE PUSH2 0x187E DUP3 DUP3 PUSH2 0x1565 JUMP JUMPDEST SWAP2 POP POP PUSH1 0x20 DUP4 ADD MLOAD DUP5 DUP3 SUB PUSH1 0x20 DUP7 ADD MSTORE PUSH2 0x1898 DUP3 DUP3 PUSH2 0x1565 JUMP JUMPDEST SWAP2 POP POP PUSH1 0x40 DUP4 ADD MLOAD DUP5 DUP3 SUB PUSH1 0x40 DUP7 ADD MSTORE PUSH2 0x18B2 DUP3 DUP3 PUSH2 0x1565 JUMP JUMPDEST SWAP2 POP POP PUSH1 0x60 DUP4 ADD MLOAD PUSH2 0x18C7 PUSH1 0x60 DUP7 ADD DUP3 PUSH2 0x1658 JUMP JUMPDEST POP PUSH1 0x80 DUP4 ADD MLOAD PUSH2 0x18DA PUSH1 0x80 DUP7 ADD DUP3 PUSH2 0x1658 JUMP JUMPDEST POP DUP1 SWAP2 POP POP SWAP3 SWAP2 POP POP JUMP JUMPDEST PUSH0 PUSH2 0x18F0 DUP4 DUP4 PUSH2 0x1864 JUMP JUMPDEST SWAP1 POP SWAP3 SWAP2 POP POP JUMP JUMPDEST PUSH0 PUSH1 0x20 DUP3 ADD SWAP1 POP SWAP2 SWAP1 POP JUMP JUMPDEST PUSH0 PUSH2 0x190E DUP3 PUSH2 0x183B JUMP JUMPDEST PUSH2 0x1918 DUP2 DUP6 PUSH2 0x1845 JUMP JUMPDEST SWAP4 POP DUP4 PUSH1 0x20 DUP3 MUL DUP6 ADD PUSH2 0x192A DUP6 PUSH2 0x1855 JUMP JUMPDEST DUP1 PUSH0 JUMPDEST DUP6 DUP2 LT ISZERO PUSH2 0x1965 JUMPI DUP5 DUP5 SUB DUP10 MSTORE DUP2 MLOAD PUSH2 0x1946 DUP6 DUP3 PUSH2 0x18E5 JUMP JUMPDEST SWAP5 POP PUSH2 0x1951 DUP4 PUSH2 0x18F8 JUMP JUMPDEST SWAP3 POP PUSH1 0x20 DUP11 ADD SWAP10 POP POP PUSH1 0x1 DUP2 ADD SWAP1 POP PUSH2 0x192D JUMP JUMPDEST POP DUP3 SWAP8 POP DUP8 SWAP6 POP POP POP POP POP POP SWAP3 SWAP2 POP POP JUMP JUMPDEST PUSH0 PUSH1 0x60 DUP3 ADD SWAP1 POP DUP2 DUP2 SUB PUSH0 DUP4 ADD MSTORE PUSH2 0x198F DUP2 DUP7 PUSH2 0x1904 JUMP JUMPDEST SWAP1 POP PUSH2 0x199E PUSH1 0x20 DUP4 ADD DUP6 PUSH2 0x16E6 JUMP JUMPDEST PUSH2 0x19AB PUSH1 0x40 DUP4 ADD DUP5 PUSH2 0x1504 JUMP JUMPDEST SWAP5 SWAP4 POP POP POP POP JUMP JUMPDEST PUSH0 PUSH1 0x60 DUP3 ADD SWAP1 POP PUSH2 0x19C6 PUSH0 DUP4 ADD DUP7 PUSH2 0x1504 JUMP JUMPDEST PUSH2 0x19D3 PUSH1 0x20 DUP4 ADD DUP6 PUSH2 0x16E6 JUMP JUMPDEST PUSH2 0x19E0 PUSH1 0x40 DUP4 ADD DUP5 PUSH2 0x16E6 JUMP JUMPDEST SWAP5 SWAP4 POP POP POP POP JUMP JUMPDEST PUSH0 PUSH8 0xFFFFFFFFFFFFFFFF DUP3 GT ISZERO PUSH2 0x1A02 JUMPI PUSH2 0x1A01 PUSH2 0x138E JUMP JUMPDEST JUMPDEST PUSH1 0x20 DUP3 MUL SWAP1 POP PUSH1 0x20 DUP2 ADD SWAP1 POP SWAP2 SWAP1 POP JUMP JUMPDEST PUSH0 DUP1 REVERT JUMPDEST PUSH0 PUSH2 0x1A29 PUSH2 0x1A24 DUP5 PUSH2 0x19E8 JUMP JUMPDEST PUSH2 0x13EC JUMP JUMPDEST SWAP1 POP DUP1 DUP4 DUP3 MSTORE PUSH1 0x20 DUP3 ADD SWAP1 POP PUSH1 0x20 DUP5 MUL DUP4 ADD DUP6 DUP2 GT ISZERO PUSH2 0x1A4C JUMPI PUSH2 0x1A4B PUSH2 0x1A13 JUMP JUMPDEST JUMPDEST DUP4 JUMPDEST DUP2 DUP2 LT ISZERO PUSH2 0x1A93 JUMPI DUP1 CALLDATALOAD PUSH8 0xFFFFFFFFFFFFFFFF DUP2 GT ISZERO PUSH2 0x1A71 JUMPI PUSH2 0x1A70 PUSH2 0x1386 JUMP JUMPDEST JUMPDEST DUP1 DUP7 ADD PUSH2 0x1A7E DUP10 DUP3 PUSH2 0x1485 JUMP JUMPDEST DUP6 MSTORE PUSH1 0x20 DUP6 ADD SWAP5 POP POP POP PUSH1 0x20 DUP2 ADD SWAP1 POP PUSH2 0x1A4E JUMP JUMPDEST POP POP POP SWAP4 SWAP3 POP POP POP JUMP JUMPDEST PUSH0 DUP3 PUSH1 0x1F DUP4 ADD SLT PUSH2 0x1AB1 JUMPI PUSH2 0x1AB0 PUSH2 0x1386 JUMP JUMPDEST JUMPDEST DUP2 CALLDATALOAD PUSH2 0x1AC1 DUP5 DUP3 PUSH1 0x20 DUP7 ADD PUSH2 0x1A17 JUMP JUMPDEST SWAP2 POP POP SWAP3 SWAP2 POP POP JUMP JUMPDEST PUSH0 DUP1 PUSH0 DUP1 PUSH0 PUSH1 0xA0 DUP7 DUP9 SUB SLT ISZERO PUSH2 0x1AE3 JUMPI PUSH2 0x1AE2 PUSH2 0x1290 JUMP JUMPDEST JUMPDEST PUSH0 DUP7 ADD CALLDATALOAD PUSH8 0xFFFFFFFFFFFFFFFF DUP2 GT ISZERO PUSH2 0x1B00 JUMPI PUSH2 0x1AFF PUSH2 0x1294 JUMP JUMPDEST JUMPDEST PUSH2 0x1B0C DUP9 DUP3 DUP10 ADD PUSH2 0x1485 JUMP JUMPDEST SWAP6 POP POP PUSH1 0x20 DUP7 ADD CALLDATALOAD PUSH8 0xFFFFFFFFFFFFFFFF DUP2 GT ISZERO PUSH2 0x1B2D JUMPI PUSH2 0x1B2C PUSH2 0x1294 JUMP JUMPDEST JUMPDEST PUSH2 0x1B39 DUP9 DUP3 DUP10 ADD PUSH2 0x1485 JUMP JUMPDEST SWAP5 POP POP PUSH1 0x40 DUP7 ADD CALLDATALOAD PUSH8 0xFFFFFFFFFFFFFFFF DUP2 GT ISZERO PUSH2 0x1B5A JUMPI PUSH2 0x1B59 PUSH2 0x1294 JUMP JUMPDEST JUMPDEST PUSH2 0x1B66 DUP9 DUP3 DUP10 ADD PUSH2 0x1A9D JUMP JUMPDEST SWAP4 POP POP PUSH1 0x60 PUSH2 0x1B77 DUP9 DUP3 DUP10 ADD PUSH2 0x12B7 JUMP JUMPDEST SWAP3 POP POP PUSH1 0x80 PUSH2 0x1B88 DUP9 DUP3 DUP10 ADD PUSH2 0x12B7 JUMP JUMPDEST SWAP2 POP POP SWAP3 SWAP6 POP SWAP3 SWAP6 SWAP1 SWAP4 POP JUMP JUMPDEST PUSH0 DUP1 PUSH0 PUSH1 0x60 DUP5 DUP7 SUB SLT ISZERO PUSH2 0x1BAC JUMPI PUSH2 0x1BAB PUSH2 0x1290 JUMP JUMPDEST JUMPDEST PUSH0 DUP5 ADD CALLDATALOAD PUSH8 0xFFFFFFFFFFFFFFFF DUP2 GT ISZERO PUSH2 0x1BC9 JUMPI PUSH2 0x1BC8 PUSH2 0x1294 JUMP JUMPDEST JUMPDEST PUSH2 0x1BD5 DUP7 DUP3 DUP8 ADD PUSH2 0x1485 JUMP JUMPDEST SWAP4 POP POP PUSH1 0x20 DUP5 ADD CALLDATALOAD PUSH8 0xFFFFFFFFFFFFFFFF DUP2 GT ISZERO PUSH2 0x1BF6 JUMPI PUSH2 0x1BF5 PUSH2 0x1294 JUMP JUMPDEST JUMPDEST PUSH2 0x1C02 DUP7 DUP3 DUP8 ADD PUSH2 0x1485 JUMP JUMPDEST SWAP3 POP POP PUSH1 0x40 DUP5 ADD CALLDATALOAD PUSH8 0xFFFFFFFFFFFFFFFF DUP2 GT ISZERO PUSH2 0x1C23 JUMPI PUSH2 0x1C22 PUSH2 0x1294 JUMP JUMPDEST JUMPDEST PUSH2 0x1C2F DUP7 DUP3 DUP8 ADD PUSH2 0x1485 JUMP JUMPDEST SWAP2 POP POP SWAP3 POP SWAP3 POP SWAP3 JUMP JUMPDEST PUSH32 0x4E487B7100000000000000000000000000000000000000000000000000000000 PUSH0 MSTORE PUSH1 0x22 PUSH1 0x4 MSTORE PUSH1 0x24 PUSH0 REVERT JUMPDEST PUSH0 PUSH1 0x2 DUP3 DIV SWAP1 POP PUSH1 0x1 DUP3 AND DUP1 PUSH2 0x1C7D JUMPI PUSH1 0x7F DUP3 AND SWAP2 POP JUMPDEST PUSH1 0x20 DUP3 LT DUP2 SUB PUSH2 0x1C90 JUMPI PUSH2 0x1C8F PUSH2 0x1C39 JUMP JUMPDEST JUMPDEST POP SWAP2 SWAP1 POP JUMP JUMPDEST PUSH32 0x4E487B7100000000000000000000000000000000000000000000000000000000 PUSH0 MSTORE PUSH1 0x32 PUSH1 0x4 MSTORE PUSH1 0x24 PUSH0 REVERT JUMPDEST PUSH0 DUP2 SWAP1 POP SWAP3 SWAP2 POP POP JUMP JUMPDEST PUSH0 DUP2 SWAP1 POP DUP2 PUSH0 MSTORE PUSH1 0x20 PUSH0 KECCAK256 SWAP1 POP SWAP2 SWAP1 POP JUMP JUMPDEST PUSH0 DUP2 SLOAD PUSH2 0x1CEB DUP2 PUSH2 0x1C66 JUMP JUMPDEST PUSH2 0x1CF5 DUP2 DUP7 PUSH2 0x1CC3 JUMP JUMPDEST SWAP5 POP PUSH1 0x1 DUP3 AND PUSH0 DUP2 EQ PUSH2 0x1D0F JUMPI PUSH1 0x1 DUP2 EQ PUSH2 0x1D24 JUMPI PUSH2 0x1D56 JUMP JUMPDEST PUSH1 0xFF NOT DUP4 AND DUP7 MSTORE DUP2 ISZERO ISZERO DUP3 MUL DUP7 ADD SWAP4 POP PUSH2 0x1D56 JUMP JUMPDEST PUSH2 0x1D2D DUP6 PUSH2 0x1CCD JUMP JUMPDEST PUSH0 JUMPDEST DUP4 DUP2 LT ISZERO PUSH2 0x1D4E JUMPI DUP2 SLOAD DUP2 DUP10 ADD MSTORE PUSH1 0x1 DUP3 ADD SWAP2 POP PUSH1 0x20 DUP2 ADD SWAP1 POP PUSH2 0x1D2F JUMP JUMPDEST DUP4 DUP9 ADD SWAP6 POP POP POP JUMPDEST POP POP POP SWAP3 SWAP2 POP POP JUMP JUMPDEST PUSH0 PUSH2 0x1D6A DUP3 DUP5 PUSH2 0x1CDF JUMP JUMPDEST SWAP2 POP DUP2 SWAP1 POP SWAP3 SWAP2 POP POP JUMP JUMPDEST PUSH32 0x4E487B7100000000000000000000000000000000000000000000000000000000 PUSH0 MSTORE PUSH1 0x11 PUSH1 0x4 MSTORE PUSH1 0x24 PUSH0 REVERT JUMPDEST PUSH0 PUSH2 0x1DAC DUP3 PUSH2 0x1298 JUMP JUMPDEST SWAP2 POP PUSH32 0xFFFFFFFFFFFFFFFFFFFFFFFFFFFFFFFFFFFFFFFFFFFFFFFFFFFFFFFFFFFFFFFF DUP3 SUB PUSH2 0x1DDE JUMPI PUSH2 0x1DDD PUSH2 0x1D75 JUMP JUMPDEST JUMPDEST PUSH1 0x1 DUP3 ADD SWAP1 POP SWAP2 SWAP1 POP JUMP JUMPDEST PUSH32 0x456C656374696F6E20697320616C726561647920636C6F736564000000000000 PUSH0 DUP3 ADD MSTORE POP JUMP JUMPDEST PUSH0 PUSH2 0x1E1D PUSH1 0x1A DUP4 PUSH2 0x1300 JUMP JUMPDEST SWAP2 POP PUSH2 0x1E28 DUP3 PUSH2 0x1DE9 JUMP JUMPDEST PUSH1 0x20 DUP3 ADD SWAP1 POP SWAP2 SWAP1 POP JUMP JUMPDEST PUSH0 PUSH1 0x20 DUP3 ADD SWAP1 POP DUP2 DUP2 SUB PUSH0 DUP4 ADD MSTORE PUSH2 0x1E4A DUP2 PUSH2 0x1E11 JUMP JUMPDEST SWAP1 POP SWAP2 SWAP1 POP JUMP JUMPDEST PUSH0 DUP2 SLOAD PUSH2 0x1E5D DUP2 PUSH2 0x1C66 JUMP JUMPDEST PUSH2 0x1E67 DUP2 DUP7 PUSH2 0x1300 JUMP JUMPDEST SWAP5 POP PUSH1 0x1 DUP3 AND PUSH0 DUP2 EQ PUSH2 0x1E81 JUMPI PUSH1 0x1 DUP2 EQ PUSH2 0x1E97 JUMPI PUSH2 0x1EC9 JUMP JUMPDEST PUSH1 0xFF NOT DUP4 AND DUP7 MSTORE DUP2 ISZERO ISZERO PUSH1 0x20 MUL DUP7 ADD SWAP4 POP PUSH2 0x1EC9 JUMP JUMPDEST PUSH2 0x1EA0 DUP6 PUSH2 0x1CCD JUMP JUMPDEST PUSH0 JUMPDEST DUP4 DUP2 LT ISZERO PUSH2 0x1EC1 JUMPI DUP2 SLOAD DUP2 DUP10 ADD MSTORE PUSH1 0x1 DUP3 ADD SWAP2 POP PUSH1 0x20 DUP2 ADD SWAP1 POP PUSH2 0x1EA2 JUMP JUMPDEST DUP1 DUP9 ADD SWAP6 POP POP POP JUMPDEST POP POP POP SWAP3 SWAP2 POP POP JUMP JUMPDEST PUSH0 PUSH1 0x60 DUP3 ADD SWAP1 POP DUP2 DUP2 SUB PUSH0 DUP4 ADD MSTORE PUSH2 0x1EEA DUP2 DUP7 PUSH2 0x1E51 JUMP JUMPDEST SWAP1 POP PUSH2 0x1EF9 PUSH1 0x20 DUP4 ADD DUP6 PUSH2 0x16E6 JUMP JUMPDEST PUSH2 0x1F06 PUSH1 0x40 DUP4 ADD DUP5 PUSH2 0x16E6 JUMP JUMPDEST SWAP5 SWAP4 POP POP POP POP JUMP JUMPDEST PUSH0 PUSH2 0x1F18 DUP3 PUSH2 0x1298 JUMP JUMPDEST SWAP2 POP PUSH2 0x1F23 DUP4 PUSH2 0x1298 JUMP JUMPDEST SWAP3 POP DUP3 DUP3 MUL PUSH2 0x1F31 DUP2 PUSH2 0x1298 JUMP JUMPDEST SWAP2 POP DUP3 DUP3 DIV DUP5 EQ DUP4 ISZERO OR PUSH2 0x1F48 JUMPI PUSH2 0x1F47 PUSH2 0x1D75 JUMP JUMPDEST JUMPDEST POP SWAP3 SWAP2 POP POP JUMP JUMPDEST PUSH0 PUSH2 0x1F59 DUP3 PUSH2 0x1298 JUMP JUMPDEST SWAP2 POP PUSH2 0x1F64 DUP4 PUSH2 0x1298 JUMP JUMPDEST SWAP3 POP DUP3 DUP3 ADD SWAP1 POP DUP1 DUP3 GT ISZERO PUSH2 0x1F7C JUMPI PUSH2 0x1F7B PUSH2 0x1D75 JUMP JUMPDEST JUMPDEST SWAP3 SWAP2 POP POP JUMP JUMPDEST PUSH0 PUSH2 0x1F8C DUP3 PUSH2 0x1298 JUMP JUMPDEST SWAP2 POP PUSH2 0x1F97 DUP4 PUSH2 0x1298 JUMP JUMPDEST SWAP3 POP DUP3 DUP3 SUB SWAP1 POP DUP2 DUP2 GT ISZERO PUSH2 0x1FAF JUMPI PUSH2 0x1FAE PUSH2 0x1D75 JUMP JUMPDEST JUMPDEST SWAP3 SWAP2 POP POP JUMP JUMPDEST PUSH32 0x456C656374696F6E20616C726561647920696E697469616C697A656400000000 PUSH0 DUP3 ADD MSTORE POP JUMP JUMPDEST PUSH0 PUSH2 0x1FE9 PUSH1 0x1C DUP4 PUSH2 0x1300 JUMP JUMPDEST SWAP2 POP PUSH2 0x1FF4 DUP3 PUSH2 0x1FB5 JUMP JUMPDEST PUSH1 0x20 DUP3 ADD SWAP1 POP SWAP2 SWAP1 POP JUMP JUMPDEST PUSH0 PUSH1 0x20 DUP3 ADD SWAP1 POP DUP2 DUP2 SUB PUSH0 DUP4 ADD MSTORE PUSH2 0x2016 DUP2 PUSH2 0x1FDD JUMP JUMPDEST SWAP1 POP SWAP2 SWAP1 POP JUMP JUMPDEST PUSH0 PUSH1 0x20 PUSH1 0x1F DUP4 ADD DIV SWAP1 POP SWAP2 SWAP1 POP JUMP JUMPDEST PUSH0 DUP3 DUP3 SHL SWAP1 POP SWAP3 SWAP2 POP POP JUMP JUMPDEST PUSH0 PUSH1 0x8 DUP4 MUL PUSH2 0x2067 PUSH32 0xFFFFFFFFFFFFFFFFFFFFFFFFFFFFFFFFFFFFFFFFFFFFFFFFFFFFFFFFFFFFFFFF DUP3 PUSH2 0x202C JUMP JUMPDEST PUSH2 0x2071 DUP7 DUP4 PUSH2 0x202C JUMP JUMPDEST SWAP6 POP DUP1 NOT DUP5 AND SWAP4 POP DUP1 DUP7 AND DUP5 OR SWAP3 POP POP POP SWAP4 SWAP3 POP POP POP JUMP JUMPDEST PUSH0 DUP2 SWAP1 POP SWAP2 SWAP1 POP JUMP JUMPDEST PUSH0 PUSH2 0x20AC PUSH2 0x20A7 PUSH2 0x20A2 DUP5 PUSH2 0x1298 JUMP JUMPDEST PUSH2 0x2089 JUMP JUMPDEST PUSH2 0x1298 JUMP JUMPDEST SWAP1 POP SWAP2 SWAP1 POP JUMP JUMPDEST PUSH0 DUP2 SWAP1 POP SWAP2 SWAP1 POP JUMP JUMPDEST PUSH2 0x20C5 DUP4 PUSH2 0x2092 JUMP JUMPDEST PUSH2 0x20D9 PUSH2 0x20D1 DUP3 PUSH2 0x20B3 JUMP JUMPDEST DUP5 DUP5 SLOAD PUSH2 0x2038 JUMP JUMPDEST DUP3 SSTORE POP POP POP POP JUMP JUMPDEST PUSH0 SWAP1 JUMP JUMPDEST PUSH2 0x20ED PUSH2 0x20E1 JUMP JUMPDEST PUSH2 0x20F8 DUP2 DUP5 DUP5 PUSH2 0x20BC JUMP JUMPDEST POP POP POP JUMP JUMPDEST JUMPDEST DUP2 DUP2 LT ISZERO PUSH2 0x211B JUMPI PUSH2 0x2110 PUSH0 DUP3 PUSH2 0x20E5 JUMP JUMPDEST PUSH1 0x1 DUP2 ADD SWAP1 POP PUSH2 0x20FE JUMP JUMPDEST POP POP JUMP JUMPDEST PUSH1 0x1F DUP3 GT ISZERO PUSH2 0x2160 JUMPI PUSH2 0x2131 DUP2 PUSH2 0x1CCD JUMP JUMPDEST PUSH2 0x213A DUP5 PUSH2 0x201D JUMP JUMPDEST DUP2 ADD PUSH1 0x20 DUP6 LT ISZERO PUSH2 0x2149 JUMPI DUP2 SWAP1 POP JUMPDEST PUSH2 0x215D PUSH2 0x2155 DUP6 PUSH2 0x201D JUMP JUMPDEST DUP4 ADD DUP3 PUSH2 0x20FD JUMP JUMPDEST POP POP JUMPDEST POP POP POP JUMP JUMPDEST PUSH0 DUP3 DUP3 SHR SWAP1 POP SWAP3 SWAP2 POP POP JUMP JUMPDEST PUSH0 PUSH2 0x2180 PUSH0 NOT DUP5 PUSH1 0x8 MUL PUSH2 0x2165 JUMP JUMPDEST NOT DUP1 DUP4 AND SWAP2 POP POP SWAP3 SWAP2 POP POP JUMP JUMPDEST PUSH0 PUSH2 0x2198 DUP4 DUP4 PUSH2 0x2171 JUMP JUMPDEST SWAP2 POP DUP3 PUSH1 0x2 MUL DUP3 OR SWAP1 POP SWAP3 SWAP2 POP POP JUMP JUMPDEST PUSH2 0x21B1 DUP3 PUSH2 0x12F6 JUMP JUMPDEST PUSH8 0xFFFFFFFFFFFFFFFF DUP2 GT ISZERO PUSH2 0x21CA JUMPI PUSH2 0x21C9 PUSH2 0x138E JUMP JUMPDEST JUMPDEST PUSH2 0x21D4 DUP3 SLOAD PUSH2 0x1C66 JUMP JUMPDEST PUSH2 0x21DF DUP3 DUP3 DUP6 PUSH2 0x211F JUMP JUMPDEST PUSH0 PUSH1 0x20 SWAP1 POP PUSH1 0x1F DUP4 GT PUSH1 0x1 DUP2 EQ PUSH2 0x2210 JUMPI PUSH0 DUP5 ISZERO PUSH2 0x21FE JUMPI DUP3 DUP8 ADD MLOAD SWAP1 POP JUMPDEST PUSH2 0x2208 DUP6 DUP3 PUSH2 0x218D JUMP JUMPDEST DUP7 SSTORE POP PUSH2 0x226F JUMP JUMPDEST PUSH1 0x1F NOT DUP5 AND PUSH2 0x221E DUP7 PUSH2 0x1CCD JUMP JUMPDEST PUSH0 JUMPDEST DUP3 DUP2 LT ISZERO PUSH2 0x2245 JUMPI DUP5 DUP10 ADD MLOAD DUP3 SSTORE PUSH1 0x1 DUP3 ADD SWAP2 POP PUSH1 0x20 DUP6 ADD SWAP5 POP PUSH1 0x20 DUP2 ADD SWAP1 POP PUSH2 0x2220 JUMP JUMPDEST DUP7 DUP4 LT ISZERO PUSH2 0x2262 JUMPI DUP5 DUP10 ADD MLOAD PUSH2 0x225E PUSH1 0x1F DUP10 AND DUP3 PUSH2 0x2171 JUMP JUMPDEST DUP4 SSTORE POP JUMPDEST PUSH1 0x1 PUSH1 0x2 DUP9 MUL ADD DUP9 SSTORE POP POP POP JUMPDEST POP POP POP POP POP POP JUMP JUMPDEST PUSH32 0x456C656374696F6E206973206E6F742061637469766500000000000000000000 PUSH0 DUP3 ADD MSTORE POP JUMP JUMPDEST PUSH0 PUSH2 0x22AB PUSH1 0x16 DUP4 PUSH2 0x1300 JUMP JUMPDEST SWAP2 POP PUSH2 0x22B6 DUP3 PUSH2 0x2277 JUMP JUMPDEST PUSH1 0x20 DUP3 ADD SWAP1 POP SWAP2 SWAP1 POP JUMP JUMPDEST PUSH0 PUSH1 0x20 DUP3 ADD SWAP1 POP DUP2 DUP2 SUB PUSH0 DUP4 ADD MSTORE PUSH2 0x22D8 DUP2 PUSH2 0x229F JUMP JUMPDEST SWAP1 POP SWAP2 SWAP1 POP JUMP JUMPDEST PUSH32 0x456C656374696F6E20686173206E6F7420737461727465642079657400000000 PUSH0 DUP3 ADD MSTORE POP JUMP JUMPDEST PUSH0 PUSH2 0x2313 PUSH1 0x1C DUP4 PUSH2 0x1300 JUMP JUMPDEST SWAP2 POP PUSH2 0x231E DUP3 PUSH2 0x22DF JUMP JUMPDEST PUSH1 0x20 DUP3 ADD SWAP1 POP SWAP2 SWAP1 POP JUMP JUMPDEST PUSH0 PUSH1 0x20 DUP3 ADD SWAP1 POP DUP2 DUP2 SUB PUSH0 DUP4 ADD MSTORE PUSH2 0x2340 DUP2 PUSH2 0x2307 JUMP JUMPDEST SWAP1 POP SWAP2 SWAP1 POP JUMP JUMPDEST PUSH32 0x456C656374696F6E2068617320656E6465640000000000000000000000000000 PUSH0 DUP3 ADD MSTORE POP JUMP JUMPDEST PUSH0 PUSH2 0x237B PUSH1 0x12 DUP4 PUSH2 0x1300 JUMP JUMPDEST SWAP2 POP PUSH2 0x2386 DUP3 PUSH2 0x2347 JUMP JUMPDEST PUSH1 0x20 DUP3 ADD SWAP1 POP SWAP2 SWAP1 POP JUMP JUMPDEST PUSH0 PUSH1 0x20 DUP3 ADD SWAP1 POP DUP2 DUP2 SUB PUSH0 DUP4 ADD MSTORE PUSH2 0x23A8 DUP2 PUSH2 0x236F JUMP JUMPDEST SWAP1 POP SWAP2 SWAP1 POP JUMP JUMPDEST PUSH0 PUSH2 0x23B9 DUP3 PUSH2 0x12F6 JUMP JUMPDEST PUSH2 0x23C3 DUP2 DUP6 PUSH2 0x1CC3 JUMP JUMPDEST SWAP4 POP PUSH2 0x23D3 DUP2 DUP6 PUSH1 0x20 DUP7 ADD PUSH2 0x1310 JUMP JUMPDEST DUP1 DUP5 ADD SWAP2 POP POP SWAP3 SWAP2 POP POP JUMP JUMPDEST PUSH0 PUSH2 0x23EA DUP3 DUP5 PUSH2 0x23AF JUMP JUMPDEST SWAP2 POP DUP2 SWAP1 POP SWAP3 SWAP2 POP POP JUMP JUMPDEST PUSH32 0x566F7465722068617320616C72656164792063617374206120766F7465000000 PUSH0 DUP3 ADD MSTORE POP JUMP JUMPDEST PUSH0 PUSH2 0x2429 PUSH1 0x1D DUP4 PUSH2 0x1300 JUMP JUMPDEST SWAP2 POP PUSH2 0x2434 DUP3 PUSH2 0x23F5 JUMP JUMPDEST PUSH1 0x20 DUP3 ADD SWAP1 POP SWAP2 SWAP1 POP JUMP JUMPDEST PUSH0 PUSH1 0x20 DUP3 ADD SWAP1 POP DUP2 DUP2 SUB PUSH0 DUP4 ADD MSTORE PUSH2 0x2456 DUP2 PUSH2 0x241D JUMP JUMPDEST SWAP1 POP SWAP2 SWAP1 POP JUMP JUMPDEST PUSH32 0x496E76616C69642063616E646964617465000000000000000000000000000000 PUSH0 DUP3 ADD MSTORE POP JUMP JUMPDEST PUSH0 PUSH2 0x2491 PUSH1 0x11 DUP4 PUSH2 0x1300 JUMP JUMPDEST SWAP2 POP PUSH2 0x249C DUP3 PUSH2 0x245D JUMP JUMPDEST PUSH1 0x20 DUP3 ADD SWAP1 POP SWAP2 SWAP1 POP JUMP JUMPDEST PUSH0 PUSH1 0x20 DUP3 ADD SWAP1 POP DUP2 DUP2 SUB PUSH0 DUP4 ADD MSTORE PUSH2 0x24BE DUP2 PUSH2 0x2485 JUMP JUMPDEST SWAP1 POP SWAP2 SWAP1 POP JUMP JUMPDEST PUSH0 PUSH1 0x80 DUP3 ADD SWAP1 POP DUP2 DUP2 SUB PUSH0 DUP4 ADD MSTORE PUSH2 0x24DD DUP2 DUP8 PUSH2 0x132E JUMP JUMPDEST SWAP1 POP DUP2 DUP2 SUB PUSH1 0x20 DUP4 ADD MSTORE PUSH2 0x24F1 DUP2 DUP7 PUSH2 0x132E JUMP JUMPDEST SWAP1 POP PUSH2 0x2500 PUSH1 0x40 DUP4 ADD DUP6 PUSH2 0x16E6 JUMP JUMPDEST PUSH2 0x250D PUSH1 0x60 DUP4 ADD DUP5 PUSH2 0x16E6 JUMP JUMPDEST SWAP6 SWAP5 POP POP POP POP POP JUMP INVALID LOG2 PUSH5 0x6970667358 0x22 SLT KECCAK256 MCOPY BLOBHASH MSTORE8 SWAP10 0x29 BASEFEE PUSH23 0xABBAEF3622630EDF9924EB8C6272C9D2E0939289D17144 0xC6 0xE2 PUSH5 0x736F6C6343 STOP ADDMOD BYTE STOP CALLER "
		},
		"gasEstimates": {
			"creation": {
				"codeDepositCost": "1909600",
				"executionCost": "2017",
				"totalCost": "1911617"
			},
			"external": {
				"candidates(uint256)": "infinite",
				"castVote(string,string,string)": "infinite",
				"closeElection()": "infinite",
				"election()": "infinite",
				"getAllVotes(uint256,uint256)": "infinite",
				"getResults()": "infinite",
				"hasVoted(string)": "infinite",
				"initElection(string,string,string[],uint256,uint256)": "infinite",
				"verifyState()": "infinite",
				"votes(uint256)": "infinite"
			}
		},
		"methodIdentifiers": {
			"candidates(uint256)": "3477ee2e",
			"castVote(string,string,string)": "cf95a070",
			"closeElection()": "6c6c32d0",
			"election()": "4b1d3ede",
			"getAllVotes(uint256,uint256)": "b382134e",
			"getResults()": "4717f97c",
			"hasVoted(string)": "39bfeae3",
			"initElection(string,string,string[],uint256,uint256)": "cd744e50",
			"verifyState()": "c62156f2",
			"votes(uint256)": "5df81330"
		}
	},
	"abi": [
		{
			"anonymous": false,
			"inputs": [
				{
					"indexed": false,
					"internalType": "string",
					"name": "electionId",
					"type": "string"
				},
				{
					"indexed": false,
					"internalType": "uint256",
					"name": "timestamp",
					"type": "uint256"
				},
				{
					"indexed": false,
					"internalType": "uint256",
					"name": "totalVotes",
					"type": "uint256"
				}
			],
			"name": "ElectionClosed",
			"type": "event"
		},
		{
			"anonymous": false,
			"inputs": [
				{
					"indexed": false,
					"internalType": "string",
					"name": "voterHash",
					"type": "string"
				},
				{
					"indexed": false,
					"internalType": "string",
					"name": "candidateId",
					"type": "string"
				},
				{
					"indexed": false,
					"internalType": "uint256",
					"name": "timestamp",
					"type": "uint256"
				},
				{
					"indexed": false,
					"internalType": "uint256",
					"name": "blockNumber",
					"type": "uint256"
				}
			],
			"name": "VoteCast",
			"type": "event"
		},
		{
			"inputs": [
				{
					"internalType": "uint256",
					"name": "",
					"type": "uint256"
				}
			],
			"name": "candidates",
			"outputs": [
				{
					"internalType": "string",
					"name": "",
					"type": "string"
				}
			],
			"stateMutability": "view",
			"type": "function"
		},
		{
			"inputs": [
				{
					"internalType": "string",
					"name": "_voterHash",
					"type": "string"
				},
				{
					"internalType": "string",
					"name": "_candidateId",
					"type": "string"
				},
				{
					"internalType": "string",
					"name": "_sessionId",
					"type": "string"
				}
			],
			"name": "castVote",
			"outputs": [
				{
					"internalType": "bool",
					"name": "",
					"type": "bool"
				}
			],
			"stateMutability": "nonpayable",
			"type": "function"
		},
		{
			"inputs": [],
			"name": "closeElection",
			"outputs": [
				{
					"internalType": "bool",
					"name": "",
					"type": "bool"
				}
			],
			"stateMutability": "nonpayable",
			"type": "function"
		},
		{
			"inputs": [],
			"name": "election",
			"outputs": [
				{
					"internalType": "string",
					"name": "electionId",
					"type": "string"
				},
				{
					"internalType": "string",
					"name": "electionName",
					"type": "string"
				},
				{
					"internalType": "uint256",
					"name": "startTime",
					"type": "uint256"
				},
				{
					"internalType": "uint256",
					"name": "endTime",
					"type": "uint256"
				},
				{
					"internalType": "bool",
					"name": "isActive",
					"type": "bool"
				}
			],
			"stateMutability": "view",
			"type": "function"
		},
		{
			"inputs": [
				{
					"internalType": "uint256",
					"name": "pageSize",
					"type": "uint256"
				},
				{
					"internalType": "uint256",
					"name": "page",
					"type": "uint256"
				}
			],
			"name": "getAllVotes",
			"outputs": [
				{
					"components": [
						{
							"internalType": "string",
							"name": "voterHash",
							"type": "string"
						},
						{
							"internalType": "string",
							"name": "candidateId",
							"type": "string"
						},
						{
							"internalType": "string",
							"name": "sessionId",
							"type": "string"
						},
						{
							"internalType": "uint256",
							"name": "timestamp",
							"type": "uint256"
						},
						{
							"internalType": "uint256",
							"name": "blockNumber",
							"type": "uint256"
						}
					],
					"internalType": "struct VotingContract.Vote[]",
					"name": "",
					"type": "tuple[]"
				},
				{
					"internalType": "uint256",
					"name": "",
					"type": "uint256"
				},
				{
					"internalType": "bool",
					"name": "",
					"type": "bool"
				}
			],
			"stateMutability": "view",
			"type": "function"
		},
		{
			"inputs": [],
			"name": "getResults",
			"outputs": [
				{
					"internalType": "string[]",
					"name": "",
					"type": "string[]"
				},
				{
					"internalType": "uint256[]",
					"name": "",
					"type": "uint256[]"
				},
				{
					"internalType": "uint256",
					"name": "",
					"type": "uint256"
				}
			],
			"stateMutability": "view",
			"type": "function"
		},
		{
			"inputs": [
				{
					"internalType": "string",
					"name": "",
					"type": "string"
				}
			],
			"name": "hasVoted",
			"outputs": [
				{
					"internalType": "bool",
					"name": "",
					"type": "bool"
				}
			],
			"stateMutability": "view",
			"type": "function"
		},
		{
			"inputs": [
				{
					"internalType": "string",
					"name": "_electionName",
					"type": "string"
				},
				{
					"internalType": "string",
					"name": "_electionId",
					"type": "string"
				},
				{
					"internalType": "string[]",
					"name": "_candidates",
					"type": "string[]"
				},
				{
					"internalType": "uint256",
					"name": "_startTime",
					"type": "uint256"
				},
				{
					"internalType": "uint256",
					"name": "_endTime",
					"type": "uint256"
				}
			],
			"name": "initElection",
			"outputs": [],
			"stateMutability": "nonpayable",
			"type": "function"
		},
		{
			"inputs": [],
			"name": "verifyState",
			"outputs": [
				{
					"internalType": "bool",
					"name": "",
					"type": "bool"
				},
				{
					"internalType": "uint256",
					"name": "",
					"type": "uint256"
				},
				{
					"internalType": "uint256",
					"name": "",
					"type": "uint256"
				}
			],
			"stateMutability": "view",
			"type": "function"
		},
		{
			"inputs": [
				{
					"internalType": "uint256",
					"name": "",
					"type": "uint256"
				}
			],
			"name": "votes",
			"outputs": [
				{
					"internalType": "string",
					"name": "voterHash",
					"type": "string"
				},
				{
					"internalType": "string",
					"name": "candidateId",
					"type": "string"
				},
				{
					"internalType": "string",
					"name": "sessionId",
					"type": "string"
				},
				{
					"internalType": "uint256",
					"name": "timestamp",
					"type": "uint256"
				},
				{
					"internalType": "uint256",
					"name": "blockNumber",
					"type": "uint256"
				}
			],
			"stateMutability": "view",
			"type": "function"
		}
	]
}